{"contracts/PokemonFactory.sol":{"PokemonFactory":{"abi":[{"anonymous":false,"inputs":[{"indexed":true,"internalType":"address","name":"_from","type":"address"},{"indexed":false,"internalType":"uint256","name":"_id","type":"uint256"},{"indexed":false,"internalType":"string","name":"_value","type":"string"}],"name":"CreatedPokemon","type":"event"},{"inputs":[{"internalType":"string","name":"_name","type":"string"},{"internalType":"uint256","name":"_id","type":"uint256"}],"name":"createPokemon","outputs":[],"stateMutability":"nonpayable","type":"function"},{"inputs":[],"name":"getAllPokemons","outputs":[{"components":[{"internalType":"uint256","name":"id","type":"uint256"},{"internalType":"string","name":"name","type":"string"}],"internalType":"struct PokemonFactory.Pokemon[]","name":"","type":"tuple[]"}],"stateMutability":"view","type":"function"},{"inputs":[],"name":"getResult","outputs":[{"internalType":"uint256","name":"product","type":"uint256"},{"internalType":"uint256","name":"sum","type":"uint256"}],"stateMutability":"pure","type":"function"},{"inputs":[{"internalType":"uint256","name":"","type":"uint256"}],"name":"pokemonToOwner","outputs":[{"internalType":"address","name":"","type":"address"}],"stateMutability":"view","type":"function"}],"evm":{"bytecode":{"linkReferences":{},"object":"608060405234801561001057600080fd5b50610de1806100206000396000f3fe608060405234801561001057600080fd5b506004361061004c5760003560e01c80630a3bd50b146100515780632f7467b31461006d5780635e9167901461009d578063de292789146100bb575b600080fd5b61006b600480360381019061006691906105b1565b6100da565b005b6100876004803603810190610082919061060d565b6102c2565b604051610094919061067b565b60405180910390f35b6100a56102f5565b6040516100b29190610823565b60405180910390f35b6100c36103f0565b6040516100d1929190610854565b60405180910390f35b6000811161011d576040517f08c379a0000000000000000000000000000000000000000000000000000000008152600401610114906108da565b60405180910390fd5b60008290506002815111610166576040517f08c379a000000000000000000000000000000000000000000000000000000000815260040161015d90610946565b60405180910390fd5b600060405180604001604052808481526020018581525090806001815401808255809150506001900390600052602060002090600202016000909190919091506000820151816000015560208201518160010190816101c59190610b72565b505050336001600084815260200190815260200160002060006101000a81548173ffffffffffffffffffffffffffffffffffffffff021916908373ffffffffffffffffffffffffffffffffffffffff160217905550600260003373ffffffffffffffffffffffffffffffffffffffff1673ffffffffffffffffffffffffffffffffffffffff168152602001908152602001600020600081548092919061026a90610c73565b91905055503373ffffffffffffffffffffffffffffffffffffffff167f4703b8523faaced5a5c33cf4d0d29396368e826fa09b85f6a13203d22f8c34d4836040516102b59190610d07565b60405180910390a2505050565b60016020528060005260406000206000915054906101000a900473ffffffffffffffffffffffffffffffffffffffff1681565b60606000805480602002602001604051908101604052809291908181526020016000905b828210156103e757838290600052602060002090600202016040518060400160405290816000820154815260200160018201805461035690610995565b80601f016020809104026020016040519081016040528092919081815260200182805461038290610995565b80156103cf5780601f106103a4576101008083540402835291602001916103cf565b820191906000526020600020905b8154815290600101906020018083116103b257829003601f168201915b50505050508152505081526020019060010190610319565b50505050905090565b600080600060019050600060029050808261040b9190610d35565b935080826104199190610d77565b925050509091565b6000604051905090565b600080fd5b600080fd5b600080fd5b600080fd5b6000601f19601f8301169050919050565b7f4e487b7100000000000000000000000000000000000000000000000000000000600052604160045260246000fd5b6104888261043f565b810181811067ffffffffffffffff821117156104a7576104a6610450565b5b80604052505050565b60006104ba610421565b90506104c6828261047f565b919050565b600067ffffffffffffffff8211156104e6576104e5610450565b5b6104ef8261043f565b9050602081019050919050565b82818337600083830152505050565b600061051e610519846104cb565b6104b0565b90508281526020810184848401111561053a5761053961043a565b5b6105458482856104fc565b509392505050565b600082601f83011261056257610561610435565b5b813561057284826020860161050b565b91505092915050565b6000819050919050565b61058e8161057b565b811461059957600080fd5b50565b6000813590506105ab81610585565b92915050565b600080604083850312156105c8576105c761042b565b5b600083013567ffffffffffffffff8111156105e6576105e5610430565b5b6105f28582860161054d565b92505060206106038582860161059c565b9150509250929050565b6000602082840312156106235761062261042b565b5b60006106318482850161059c565b91505092915050565b600073ffffffffffffffffffffffffffffffffffffffff82169050919050565b60006106658261063a565b9050919050565b6106758161065a565b82525050565b6000602082019050610690600083018461066c565b92915050565b600081519050919050565b600082825260208201905092915050565b6000819050602082019050919050565b6106cb8161057b565b82525050565b600081519050919050565b600082825260208201905092915050565b60005b8381101561070b5780820151818401526020810190506106f0565b60008484015250505050565b6000610722826106d1565b61072c81856106dc565b935061073c8185602086016106ed565b6107458161043f565b840191505092915050565b600060408301600083015161076860008601826106c2565b50602083015184820360208601526107808282610717565b9150508091505092915050565b60006107998383610750565b905092915050565b6000602082019050919050565b60006107b982610696565b6107c381856106a1565b9350836020820285016107d5856106b2565b8060005b8581101561081157848403895281516107f2858261078d565b94506107fd836107a1565b925060208a019950506001810190506107d9565b50829750879550505050505092915050565b6000602082019050818103600083015261083d81846107ae565b905092915050565b61084e8161057b565b82525050565b60006040820190506108696000830185610845565b6108766020830184610845565b9392505050565b600082825260208201905092915050565b7f4944206d75737420626520626967676572207468616e20300000000000000000600082015250565b60006108c460188361087d565b91506108cf8261088e565b602082019050919050565b600060208201905081810360008301526108f3816108b7565b9050919050565b7f4e616d65206d7573742068617665206174206c65617374203220636861727300600082015250565b6000610930601f8361087d565b915061093b826108fa565b602082019050919050565b6000602082019050818103600083015261095f81610923565b9050919050565b7f4e487b7100000000000000000000000000000000000000000000000000000000600052602260045260246000fd5b600060028204905060018216806109ad57607f821691505b6020821081036109c0576109bf610966565b5b50919050565b60008190508160005260206000209050919050565b60006020601f8301049050919050565b600082821b905092915050565b600060088302610a287fffffffffffffffffffffffffffffffffffffffffffffffffffffffffffffffff826109eb565b610a3286836109eb565b95508019841693508086168417925050509392505050565b6000819050919050565b6000610a6f610a6a610a658461057b565b610a4a565b61057b565b9050919050565b6000819050919050565b610a8983610a54565b610a9d610a9582610a76565b8484546109f8565b825550505050565b600090565b610ab2610aa5565b610abd818484610a80565b505050565b5b81811015610ae157610ad6600082610aaa565b600181019050610ac3565b5050565b601f821115610b2657610af7816109c6565b610b00846109db565b81016020851015610b0f578190505b610b23610b1b856109db565b830182610ac2565b50505b505050565b600082821c905092915050565b6000610b4960001984600802610b2b565b1980831691505092915050565b6000610b628383610b38565b9150826002028217905092915050565b610b7b826106d1565b67ffffffffffffffff811115610b9457610b93610450565b5b610b9e8254610995565b610ba9828285610ae5565b600060209050601f831160018114610bdc5760008415610bca578287015190505b610bd48582610b56565b865550610c3c565b601f198416610bea866109c6565b60005b82811015610c1257848901518255600182019150602085019450602081019050610bed565b86831015610c2f5784890151610c2b601f891682610b38565b8355505b6001600288020188555050505b505050505050565b7f4e487b7100000000000000000000000000000000000000000000000000000000600052601160045260246000fd5b6000610c7e8261057b565b91507fffffffffffffffffffffffffffffffffffffffffffffffffffffffffffffffff8203610cb057610caf610c44565b5b600182019050919050565b7f4e657720706f6b656d6f6e206372656174656400000000000000000000000000600082015250565b6000610cf160138361087d565b9150610cfc82610cbb565b602082019050919050565b6000604082019050610d1c6000830184610845565b8181036020830152610d2d81610ce4565b905092915050565b6000610d408261057b565b9150610d4b8361057b565b9250828202610d598161057b565b91508282048414831517610d7057610d6f610c44565b5b5092915050565b6000610d828261057b565b9150610d8d8361057b565b9250828201905080821115610da557610da4610c44565b5b9291505056fea2646970667358221220a0d22de40357b6b314ee991b1fddebc6fff4251697c93a302543c7961085966d64736f6c63430008120033","opcodes":"PUSH1 0x80 PUSH1 0x40 MSTORE CALLVALUE DUP1 ISZERO PUSH2 0x10 JUMPI PUSH1 0x0 DUP1 REVERT JUMPDEST POP PUSH2 0xDE1 DUP1 PUSH2 0x20 PUSH1 0x0 CODECOPY PUSH1 0x0 RETURN INVALID PUSH1 0x80 PUSH1 0x40 MSTORE CALLVALUE DUP1 ISZERO PUSH2 0x10 JUMPI PUSH1 0x0 DUP1 REVERT JUMPDEST POP PUSH1 0x4 CALLDATASIZE LT PUSH2 0x4C JUMPI PUSH1 0x0 CALLDATALOAD PUSH1 0xE0 SHR DUP1 PUSH4 0xA3BD50B EQ PUSH2 0x51 JUMPI DUP1 PUSH4 0x2F7467B3 EQ PUSH2 0x6D JUMPI DUP1 PUSH4 0x5E916790 EQ PUSH2 0x9D JUMPI DUP1 PUSH4 0xDE292789 EQ PUSH2 0xBB JUMPI JUMPDEST PUSH1 0x0 DUP1 REVERT JUMPDEST PUSH2 0x6B PUSH1 0x4 DUP1 CALLDATASIZE SUB DUP2 ADD SWAP1 PUSH2 0x66 SWAP2 SWAP1 PUSH2 0x5B1 JUMP JUMPDEST PUSH2 0xDA JUMP JUMPDEST STOP JUMPDEST PUSH2 0x87 PUSH1 0x4 DUP1 CALLDATASIZE SUB DUP2 ADD SWAP1 PUSH2 0x82 SWAP2 SWAP1 PUSH2 0x60D JUMP JUMPDEST PUSH2 0x2C2 JUMP JUMPDEST PUSH1 0x40 MLOAD PUSH2 0x94 SWAP2 SWAP1 PUSH2 0x67B JUMP JUMPDEST PUSH1 0x40 MLOAD DUP1 SWAP2 SUB SWAP1 RETURN JUMPDEST PUSH2 0xA5 PUSH2 0x2F5 JUMP JUMPDEST PUSH1 0x40 MLOAD PUSH2 0xB2 SWAP2 SWAP1 PUSH2 0x823 JUMP JUMPDEST PUSH1 0x40 MLOAD DUP1 SWAP2 SUB SWAP1 RETURN JUMPDEST PUSH2 0xC3 PUSH2 0x3F0 JUMP JUMPDEST PUSH1 0x40 MLOAD PUSH2 0xD1 SWAP3 SWAP2 SWAP1 PUSH2 0x854 JUMP JUMPDEST PUSH1 0x40 MLOAD DUP1 SWAP2 SUB SWAP1 RETURN JUMPDEST PUSH1 0x0 DUP2 GT PUSH2 0x11D JUMPI PUSH1 0x40 MLOAD PUSH32 0x8C379A000000000000000000000000000000000000000000000000000000000 DUP2 MSTORE PUSH1 0x4 ADD PUSH2 0x114 SWAP1 PUSH2 0x8DA JUMP JUMPDEST PUSH1 0x40 MLOAD DUP1 SWAP2 SUB SWAP1 REVERT JUMPDEST PUSH1 0x0 DUP3 SWAP1 POP PUSH1 0x2 DUP2 MLOAD GT PUSH2 0x166 JUMPI PUSH1 0x40 MLOAD PUSH32 0x8C379A000000000000000000000000000000000000000000000000000000000 DUP2 MSTORE PUSH1 0x4 ADD PUSH2 0x15D SWAP1 PUSH2 0x946 JUMP JUMPDEST PUSH1 0x40 MLOAD DUP1 SWAP2 SUB SWAP1 REVERT JUMPDEST PUSH1 0x0 PUSH1 0x40 MLOAD DUP1 PUSH1 0x40 ADD PUSH1 0x40 MSTORE DUP1 DUP5 DUP2 MSTORE PUSH1 0x20 ADD DUP6 DUP2 MSTORE POP SWAP1 DUP1 PUSH1 0x1 DUP2 SLOAD ADD DUP1 DUP3 SSTORE DUP1 SWAP2 POP POP PUSH1 0x1 SWAP1 SUB SWAP1 PUSH1 0x0 MSTORE PUSH1 0x20 PUSH1 0x0 KECCAK256 SWAP1 PUSH1 0x2 MUL ADD PUSH1 0x0 SWAP1 SWAP2 SWAP1 SWAP2 SWAP1 SWAP2 POP PUSH1 0x0 DUP3 ADD MLOAD DUP2 PUSH1 0x0 ADD SSTORE PUSH1 0x20 DUP3 ADD MLOAD DUP2 PUSH1 0x1 ADD SWAP1 DUP2 PUSH2 0x1C5 SWAP2 SWAP1 PUSH2 0xB72 JUMP JUMPDEST POP POP POP CALLER PUSH1 0x1 PUSH1 0x0 DUP5 DUP2 MSTORE PUSH1 0x20 ADD SWAP1 DUP2 MSTORE PUSH1 0x20 ADD PUSH1 0x0 KECCAK256 PUSH1 0x0 PUSH2 0x100 EXP DUP2 SLOAD DUP2 PUSH20 0xFFFFFFFFFFFFFFFFFFFFFFFFFFFFFFFFFFFFFFFF MUL NOT AND SWAP1 DUP4 PUSH20 0xFFFFFFFFFFFFFFFFFFFFFFFFFFFFFFFFFFFFFFFF AND MUL OR SWAP1 SSTORE POP PUSH1 0x2 PUSH1 0x0 CALLER PUSH20 0xFFFFFFFFFFFFFFFFFFFFFFFFFFFFFFFFFFFFFFFF AND PUSH20 0xFFFFFFFFFFFFFFFFFFFFFFFFFFFFFFFFFFFFFFFF AND DUP2 MSTORE PUSH1 0x20 ADD SWAP1 DUP2 MSTORE PUSH1 0x20 ADD PUSH1 0x0 KECCAK256 PUSH1 0x0 DUP2 SLOAD DUP1 SWAP3 SWAP2 SWAP1 PUSH2 0x26A SWAP1 PUSH2 0xC73 JUMP JUMPDEST SWAP2 SWAP1 POP SSTORE POP CALLER PUSH20 0xFFFFFFFFFFFFFFFFFFFFFFFFFFFFFFFFFFFFFFFF AND PUSH32 0x4703B8523FAACED5A5C33CF4D0D29396368E826FA09B85F6A13203D22F8C34D4 DUP4 PUSH1 0x40 MLOAD PUSH2 0x2B5 SWAP2 SWAP1 PUSH2 0xD07 JUMP JUMPDEST PUSH1 0x40 MLOAD DUP1 SWAP2 SUB SWAP1 LOG2 POP POP POP JUMP JUMPDEST PUSH1 0x1 PUSH1 0x20 MSTORE DUP1 PUSH1 0x0 MSTORE PUSH1 0x40 PUSH1 0x0 KECCAK256 PUSH1 0x0 SWAP2 POP SLOAD SWAP1 PUSH2 0x100 EXP SWAP1 DIV PUSH20 0xFFFFFFFFFFFFFFFFFFFFFFFFFFFFFFFFFFFFFFFF AND DUP2 JUMP JUMPDEST PUSH1 0x60 PUSH1 0x0 DUP1 SLOAD DUP1 PUSH1 0x20 MUL PUSH1 0x20 ADD PUSH1 0x40 MLOAD SWAP1 DUP2 ADD PUSH1 0x40 MSTORE DUP1 SWAP3 SWAP2 SWAP1 DUP2 DUP2 MSTORE PUSH1 0x20 ADD PUSH1 0x0 SWAP1 JUMPDEST DUP3 DUP3 LT ISZERO PUSH2 0x3E7 JUMPI DUP4 DUP3 SWAP1 PUSH1 0x0 MSTORE PUSH1 0x20 PUSH1 0x0 KECCAK256 SWAP1 PUSH1 0x2 MUL ADD PUSH1 0x40 MLOAD DUP1 PUSH1 0x40 ADD PUSH1 0x40 MSTORE SWAP1 DUP2 PUSH1 0x0 DUP3 ADD SLOAD DUP2 MSTORE PUSH1 0x20 ADD PUSH1 0x1 DUP3 ADD DUP1 SLOAD PUSH2 0x356 SWAP1 PUSH2 0x995 JUMP JUMPDEST DUP1 PUSH1 0x1F ADD PUSH1 0x20 DUP1 SWAP2 DIV MUL PUSH1 0x20 ADD PUSH1 0x40 MLOAD SWAP1 DUP2 ADD PUSH1 0x40 MSTORE DUP1 SWAP3 SWAP2 SWAP1 DUP2 DUP2 MSTORE PUSH1 0x20 ADD DUP3 DUP1 SLOAD PUSH2 0x382 SWAP1 PUSH2 0x995 JUMP JUMPDEST DUP1 ISZERO PUSH2 0x3CF JUMPI DUP1 PUSH1 0x1F LT PUSH2 0x3A4 JUMPI PUSH2 0x100 DUP1 DUP4 SLOAD DIV MUL DUP4 MSTORE SWAP2 PUSH1 0x20 ADD SWAP2 PUSH2 0x3CF JUMP JUMPDEST DUP3 ADD SWAP2 SWAP1 PUSH1 0x0 MSTORE PUSH1 0x20 PUSH1 0x0 KECCAK256 SWAP1 JUMPDEST DUP2 SLOAD DUP2 MSTORE SWAP1 PUSH1 0x1 ADD SWAP1 PUSH1 0x20 ADD DUP1 DUP4 GT PUSH2 0x3B2 JUMPI DUP3 SWAP1 SUB PUSH1 0x1F AND DUP3 ADD SWAP2 JUMPDEST POP POP POP POP POP DUP2 MSTORE POP POP DUP2 MSTORE PUSH1 0x20 ADD SWAP1 PUSH1 0x1 ADD SWAP1 PUSH2 0x319 JUMP JUMPDEST POP POP POP POP SWAP1 POP SWAP1 JUMP JUMPDEST PUSH1 0x0 DUP1 PUSH1 0x0 PUSH1 0x1 SWAP1 POP PUSH1 0x0 PUSH1 0x2 SWAP1 POP DUP1 DUP3 PUSH2 0x40B SWAP2 SWAP1 PUSH2 0xD35 JUMP JUMPDEST SWAP4 POP DUP1 DUP3 PUSH2 0x419 SWAP2 SWAP1 PUSH2 0xD77 JUMP JUMPDEST SWAP3 POP POP POP SWAP1 SWAP2 JUMP JUMPDEST PUSH1 0x0 PUSH1 0x40 MLOAD SWAP1 POP SWAP1 JUMP JUMPDEST PUSH1 0x0 DUP1 REVERT JUMPDEST PUSH1 0x0 DUP1 REVERT JUMPDEST PUSH1 0x0 DUP1 REVERT JUMPDEST PUSH1 0x0 DUP1 REVERT JUMPDEST PUSH1 0x0 PUSH1 0x1F NOT PUSH1 0x1F DUP4 ADD AND SWAP1 POP SWAP2 SWAP1 POP JUMP JUMPDEST PUSH32 0x4E487B7100000000000000000000000000000000000000000000000000000000 PUSH1 0x0 MSTORE PUSH1 0x41 PUSH1 0x4 MSTORE PUSH1 0x24 PUSH1 0x0 REVERT JUMPDEST PUSH2 0x488 DUP3 PUSH2 0x43F JUMP JUMPDEST DUP2 ADD DUP2 DUP2 LT PUSH8 0xFFFFFFFFFFFFFFFF DUP3 GT OR ISZERO PUSH2 0x4A7 JUMPI PUSH2 0x4A6 PUSH2 0x450 JUMP JUMPDEST JUMPDEST DUP1 PUSH1 0x40 MSTORE POP POP POP JUMP JUMPDEST PUSH1 0x0 PUSH2 0x4BA PUSH2 0x421 JUMP JUMPDEST SWAP1 POP PUSH2 0x4C6 DUP3 DUP3 PUSH2 0x47F JUMP JUMPDEST SWAP2 SWAP1 POP JUMP JUMPDEST PUSH1 0x0 PUSH8 0xFFFFFFFFFFFFFFFF DUP3 GT ISZERO PUSH2 0x4E6 JUMPI PUSH2 0x4E5 PUSH2 0x450 JUMP JUMPDEST JUMPDEST PUSH2 0x4EF DUP3 PUSH2 0x43F JUMP JUMPDEST SWAP1 POP PUSH1 0x20 DUP2 ADD SWAP1 POP SWAP2 SWAP1 POP JUMP JUMPDEST DUP3 DUP2 DUP4 CALLDATACOPY PUSH1 0x0 DUP4 DUP4 ADD MSTORE POP POP POP JUMP JUMPDEST PUSH1 0x0 PUSH2 0x51E PUSH2 0x519 DUP5 PUSH2 0x4CB JUMP JUMPDEST PUSH2 0x4B0 JUMP JUMPDEST SWAP1 POP DUP3 DUP2 MSTORE PUSH1 0x20 DUP2 ADD DUP5 DUP5 DUP5 ADD GT ISZERO PUSH2 0x53A JUMPI PUSH2 0x539 PUSH2 0x43A JUMP JUMPDEST JUMPDEST PUSH2 0x545 DUP5 DUP3 DUP6 PUSH2 0x4FC JUMP JUMPDEST POP SWAP4 SWAP3 POP POP POP JUMP JUMPDEST PUSH1 0x0 DUP3 PUSH1 0x1F DUP4 ADD SLT PUSH2 0x562 JUMPI PUSH2 0x561 PUSH2 0x435 JUMP JUMPDEST JUMPDEST DUP2 CALLDATALOAD PUSH2 0x572 DUP5 DUP3 PUSH1 0x20 DUP7 ADD PUSH2 0x50B JUMP JUMPDEST SWAP2 POP POP SWAP3 SWAP2 POP POP JUMP JUMPDEST PUSH1 0x0 DUP2 SWAP1 POP SWAP2 SWAP1 POP JUMP JUMPDEST PUSH2 0x58E DUP2 PUSH2 0x57B JUMP JUMPDEST DUP2 EQ PUSH2 0x599 JUMPI PUSH1 0x0 DUP1 REVERT JUMPDEST POP JUMP JUMPDEST PUSH1 0x0 DUP2 CALLDATALOAD SWAP1 POP PUSH2 0x5AB DUP2 PUSH2 0x585 JUMP JUMPDEST SWAP3 SWAP2 POP POP JUMP JUMPDEST PUSH1 0x0 DUP1 PUSH1 0x40 DUP4 DUP6 SUB SLT ISZERO PUSH2 0x5C8 JUMPI PUSH2 0x5C7 PUSH2 0x42B JUMP JUMPDEST JUMPDEST PUSH1 0x0 DUP4 ADD CALLDATALOAD PUSH8 0xFFFFFFFFFFFFFFFF DUP2 GT ISZERO PUSH2 0x5E6 JUMPI PUSH2 0x5E5 PUSH2 0x430 JUMP JUMPDEST JUMPDEST PUSH2 0x5F2 DUP6 DUP3 DUP7 ADD PUSH2 0x54D JUMP JUMPDEST SWAP3 POP POP PUSH1 0x20 PUSH2 0x603 DUP6 DUP3 DUP7 ADD PUSH2 0x59C JUMP JUMPDEST SWAP2 POP POP SWAP3 POP SWAP3 SWAP1 POP JUMP JUMPDEST PUSH1 0x0 PUSH1 0x20 DUP3 DUP5 SUB SLT ISZERO PUSH2 0x623 JUMPI PUSH2 0x622 PUSH2 0x42B JUMP JUMPDEST JUMPDEST PUSH1 0x0 PUSH2 0x631 DUP5 DUP3 DUP6 ADD PUSH2 0x59C JUMP JUMPDEST SWAP2 POP POP SWAP3 SWAP2 POP POP JUMP JUMPDEST PUSH1 0x0 PUSH20 0xFFFFFFFFFFFFFFFFFFFFFFFFFFFFFFFFFFFFFFFF DUP3 AND SWAP1 POP SWAP2 SWAP1 POP JUMP JUMPDEST PUSH1 0x0 PUSH2 0x665 DUP3 PUSH2 0x63A JUMP JUMPDEST SWAP1 POP SWAP2 SWAP1 POP JUMP JUMPDEST PUSH2 0x675 DUP2 PUSH2 0x65A JUMP JUMPDEST DUP3 MSTORE POP POP JUMP JUMPDEST PUSH1 0x0 PUSH1 0x20 DUP3 ADD SWAP1 POP PUSH2 0x690 PUSH1 0x0 DUP4 ADD DUP5 PUSH2 0x66C JUMP JUMPDEST SWAP3 SWAP2 POP POP JUMP JUMPDEST PUSH1 0x0 DUP2 MLOAD SWAP1 POP SWAP2 SWAP1 POP JUMP JUMPDEST PUSH1 0x0 DUP3 DUP3 MSTORE PUSH1 0x20 DUP3 ADD SWAP1 POP SWAP3 SWAP2 POP POP JUMP JUMPDEST PUSH1 0x0 DUP2 SWAP1 POP PUSH1 0x20 DUP3 ADD SWAP1 POP SWAP2 SWAP1 POP JUMP JUMPDEST PUSH2 0x6CB DUP2 PUSH2 0x57B JUMP JUMPDEST DUP3 MSTORE POP POP JUMP JUMPDEST PUSH1 0x0 DUP2 MLOAD SWAP1 POP SWAP2 SWAP1 POP JUMP JUMPDEST PUSH1 0x0 DUP3 DUP3 MSTORE PUSH1 0x20 DUP3 ADD SWAP1 POP SWAP3 SWAP2 POP POP JUMP JUMPDEST PUSH1 0x0 JUMPDEST DUP4 DUP2 LT ISZERO PUSH2 0x70B JUMPI DUP1 DUP3 ADD MLOAD DUP2 DUP5 ADD MSTORE PUSH1 0x20 DUP2 ADD SWAP1 POP PUSH2 0x6F0 JUMP JUMPDEST PUSH1 0x0 DUP5 DUP5 ADD MSTORE POP POP POP POP JUMP JUMPDEST PUSH1 0x0 PUSH2 0x722 DUP3 PUSH2 0x6D1 JUMP JUMPDEST PUSH2 0x72C DUP2 DUP6 PUSH2 0x6DC JUMP JUMPDEST SWAP4 POP PUSH2 0x73C DUP2 DUP6 PUSH1 0x20 DUP7 ADD PUSH2 0x6ED JUMP JUMPDEST PUSH2 0x745 DUP2 PUSH2 0x43F JUMP JUMPDEST DUP5 ADD SWAP2 POP POP SWAP3 SWAP2 POP POP JUMP JUMPDEST PUSH1 0x0 PUSH1 0x40 DUP4 ADD PUSH1 0x0 DUP4 ADD MLOAD PUSH2 0x768 PUSH1 0x0 DUP7 ADD DUP3 PUSH2 0x6C2 JUMP JUMPDEST POP PUSH1 0x20 DUP4 ADD MLOAD DUP5 DUP3 SUB PUSH1 0x20 DUP7 ADD MSTORE PUSH2 0x780 DUP3 DUP3 PUSH2 0x717 JUMP JUMPDEST SWAP2 POP POP DUP1 SWAP2 POP POP SWAP3 SWAP2 POP POP JUMP JUMPDEST PUSH1 0x0 PUSH2 0x799 DUP4 DUP4 PUSH2 0x750 JUMP JUMPDEST SWAP1 POP SWAP3 SWAP2 POP POP JUMP JUMPDEST PUSH1 0x0 PUSH1 0x20 DUP3 ADD SWAP1 POP SWAP2 SWAP1 POP JUMP JUMPDEST PUSH1 0x0 PUSH2 0x7B9 DUP3 PUSH2 0x696 JUMP JUMPDEST PUSH2 0x7C3 DUP2 DUP6 PUSH2 0x6A1 JUMP JUMPDEST SWAP4 POP DUP4 PUSH1 0x20 DUP3 MUL DUP6 ADD PUSH2 0x7D5 DUP6 PUSH2 0x6B2 JUMP JUMPDEST DUP1 PUSH1 0x0 JUMPDEST DUP6 DUP2 LT ISZERO PUSH2 0x811 JUMPI DUP5 DUP5 SUB DUP10 MSTORE DUP2 MLOAD PUSH2 0x7F2 DUP6 DUP3 PUSH2 0x78D JUMP JUMPDEST SWAP5 POP PUSH2 0x7FD DUP4 PUSH2 0x7A1 JUMP JUMPDEST SWAP3 POP PUSH1 0x20 DUP11 ADD SWAP10 POP POP PUSH1 0x1 DUP2 ADD SWAP1 POP PUSH2 0x7D9 JUMP JUMPDEST POP DUP3 SWAP8 POP DUP8 SWAP6 POP POP POP POP POP POP SWAP3 SWAP2 POP POP JUMP JUMPDEST PUSH1 0x0 PUSH1 0x20 DUP3 ADD SWAP1 POP DUP2 DUP2 SUB PUSH1 0x0 DUP4 ADD MSTORE PUSH2 0x83D DUP2 DUP5 PUSH2 0x7AE JUMP JUMPDEST SWAP1 POP SWAP3 SWAP2 POP POP JUMP JUMPDEST PUSH2 0x84E DUP2 PUSH2 0x57B JUMP JUMPDEST DUP3 MSTORE POP POP JUMP JUMPDEST PUSH1 0x0 PUSH1 0x40 DUP3 ADD SWAP1 POP PUSH2 0x869 PUSH1 0x0 DUP4 ADD DUP6 PUSH2 0x845 JUMP JUMPDEST PUSH2 0x876 PUSH1 0x20 DUP4 ADD DUP5 PUSH2 0x845 JUMP JUMPDEST SWAP4 SWAP3 POP POP POP JUMP JUMPDEST PUSH1 0x0 DUP3 DUP3 MSTORE PUSH1 0x20 DUP3 ADD SWAP1 POP SWAP3 SWAP2 POP POP JUMP JUMPDEST PUSH32 0x4944206D75737420626520626967676572207468616E20300000000000000000 PUSH1 0x0 DUP3 ADD MSTORE POP JUMP JUMPDEST PUSH1 0x0 PUSH2 0x8C4 PUSH1 0x18 DUP4 PUSH2 0x87D JUMP JUMPDEST SWAP2 POP PUSH2 0x8CF DUP3 PUSH2 0x88E JUMP JUMPDEST PUSH1 0x20 DUP3 ADD SWAP1 POP SWAP2 SWAP1 POP JUMP JUMPDEST PUSH1 0x0 PUSH1 0x20 DUP3 ADD SWAP1 POP DUP2 DUP2 SUB PUSH1 0x0 DUP4 ADD MSTORE PUSH2 0x8F3 DUP2 PUSH2 0x8B7 JUMP JUMPDEST SWAP1 POP SWAP2 SWAP1 POP JUMP JUMPDEST PUSH32 0x4E616D65206D7573742068617665206174206C65617374203220636861727300 PUSH1 0x0 DUP3 ADD MSTORE POP JUMP JUMPDEST PUSH1 0x0 PUSH2 0x930 PUSH1 0x1F DUP4 PUSH2 0x87D JUMP JUMPDEST SWAP2 POP PUSH2 0x93B DUP3 PUSH2 0x8FA JUMP JUMPDEST PUSH1 0x20 DUP3 ADD SWAP1 POP SWAP2 SWAP1 POP JUMP JUMPDEST PUSH1 0x0 PUSH1 0x20 DUP3 ADD SWAP1 POP DUP2 DUP2 SUB PUSH1 0x0 DUP4 ADD MSTORE PUSH2 0x95F DUP2 PUSH2 0x923 JUMP JUMPDEST SWAP1 POP SWAP2 SWAP1 POP JUMP JUMPDEST PUSH32 0x4E487B7100000000000000000000000000000000000000000000000000000000 PUSH1 0x0 MSTORE PUSH1 0x22 PUSH1 0x4 MSTORE PUSH1 0x24 PUSH1 0x0 REVERT JUMPDEST PUSH1 0x0 PUSH1 0x2 DUP3 DIV SWAP1 POP PUSH1 0x1 DUP3 AND DUP1 PUSH2 0x9AD JUMPI PUSH1 0x7F DUP3 AND SWAP2 POP JUMPDEST PUSH1 0x20 DUP3 LT DUP2 SUB PUSH2 0x9C0 JUMPI PUSH2 0x9BF PUSH2 0x966 JUMP JUMPDEST JUMPDEST POP SWAP2 SWAP1 POP JUMP JUMPDEST PUSH1 0x0 DUP2 SWAP1 POP DUP2 PUSH1 0x0 MSTORE PUSH1 0x20 PUSH1 0x0 KECCAK256 SWAP1 POP SWAP2 SWAP1 POP JUMP JUMPDEST PUSH1 0x0 PUSH1 0x20 PUSH1 0x1F DUP4 ADD DIV SWAP1 POP SWAP2 SWAP1 POP JUMP JUMPDEST PUSH1 0x0 DUP3 DUP3 SHL SWAP1 POP SWAP3 SWAP2 POP POP JUMP JUMPDEST PUSH1 0x0 PUSH1 0x8 DUP4 MUL PUSH2 0xA28 PUSH32 0xFFFFFFFFFFFFFFFFFFFFFFFFFFFFFFFFFFFFFFFFFFFFFFFFFFFFFFFFFFFFFFFF DUP3 PUSH2 0x9EB JUMP JUMPDEST PUSH2 0xA32 DUP7 DUP4 PUSH2 0x9EB JUMP JUMPDEST SWAP6 POP DUP1 NOT DUP5 AND SWAP4 POP DUP1 DUP7 AND DUP5 OR SWAP3 POP POP POP SWAP4 SWAP3 POP POP POP JUMP JUMPDEST PUSH1 0x0 DUP2 SWAP1 POP SWAP2 SWAP1 POP JUMP JUMPDEST PUSH1 0x0 PUSH2 0xA6F PUSH2 0xA6A PUSH2 0xA65 DUP5 PUSH2 0x57B JUMP JUMPDEST PUSH2 0xA4A JUMP JUMPDEST PUSH2 0x57B JUMP JUMPDEST SWAP1 POP SWAP2 SWAP1 POP JUMP JUMPDEST PUSH1 0x0 DUP2 SWAP1 POP SWAP2 SWAP1 POP JUMP JUMPDEST PUSH2 0xA89 DUP4 PUSH2 0xA54 JUMP JUMPDEST PUSH2 0xA9D PUSH2 0xA95 DUP3 PUSH2 0xA76 JUMP JUMPDEST DUP5 DUP5 SLOAD PUSH2 0x9F8 JUMP JUMPDEST DUP3 SSTORE POP POP POP POP JUMP JUMPDEST PUSH1 0x0 SWAP1 JUMP JUMPDEST PUSH2 0xAB2 PUSH2 0xAA5 JUMP JUMPDEST PUSH2 0xABD DUP2 DUP5 DUP5 PUSH2 0xA80 JUMP JUMPDEST POP POP POP JUMP JUMPDEST JUMPDEST DUP2 DUP2 LT ISZERO PUSH2 0xAE1 JUMPI PUSH2 0xAD6 PUSH1 0x0 DUP3 PUSH2 0xAAA JUMP JUMPDEST PUSH1 0x1 DUP2 ADD SWAP1 POP PUSH2 0xAC3 JUMP JUMPDEST POP POP JUMP JUMPDEST PUSH1 0x1F DUP3 GT ISZERO PUSH2 0xB26 JUMPI PUSH2 0xAF7 DUP2 PUSH2 0x9C6 JUMP JUMPDEST PUSH2 0xB00 DUP5 PUSH2 0x9DB JUMP JUMPDEST DUP2 ADD PUSH1 0x20 DUP6 LT ISZERO PUSH2 0xB0F JUMPI DUP2 SWAP1 POP JUMPDEST PUSH2 0xB23 PUSH2 0xB1B DUP6 PUSH2 0x9DB JUMP JUMPDEST DUP4 ADD DUP3 PUSH2 0xAC2 JUMP JUMPDEST POP POP JUMPDEST POP POP POP JUMP JUMPDEST PUSH1 0x0 DUP3 DUP3 SHR SWAP1 POP SWAP3 SWAP2 POP POP JUMP JUMPDEST PUSH1 0x0 PUSH2 0xB49 PUSH1 0x0 NOT DUP5 PUSH1 0x8 MUL PUSH2 0xB2B JUMP JUMPDEST NOT DUP1 DUP4 AND SWAP2 POP POP SWAP3 SWAP2 POP POP JUMP JUMPDEST PUSH1 0x0 PUSH2 0xB62 DUP4 DUP4 PUSH2 0xB38 JUMP JUMPDEST SWAP2 POP DUP3 PUSH1 0x2 MUL DUP3 OR SWAP1 POP SWAP3 SWAP2 POP POP JUMP JUMPDEST PUSH2 0xB7B DUP3 PUSH2 0x6D1 JUMP JUMPDEST PUSH8 0xFFFFFFFFFFFFFFFF DUP2 GT ISZERO PUSH2 0xB94 JUMPI PUSH2 0xB93 PUSH2 0x450 JUMP JUMPDEST JUMPDEST PUSH2 0xB9E DUP3 SLOAD PUSH2 0x995 JUMP JUMPDEST PUSH2 0xBA9 DUP3 DUP3 DUP6 PUSH2 0xAE5 JUMP JUMPDEST PUSH1 0x0 PUSH1 0x20 SWAP1 POP PUSH1 0x1F DUP4 GT PUSH1 0x1 DUP2 EQ PUSH2 0xBDC JUMPI PUSH1 0x0 DUP5 ISZERO PUSH2 0xBCA JUMPI DUP3 DUP8 ADD MLOAD SWAP1 POP JUMPDEST PUSH2 0xBD4 DUP6 DUP3 PUSH2 0xB56 JUMP JUMPDEST DUP7 SSTORE POP PUSH2 0xC3C JUMP JUMPDEST PUSH1 0x1F NOT DUP5 AND PUSH2 0xBEA DUP7 PUSH2 0x9C6 JUMP JUMPDEST PUSH1 0x0 JUMPDEST DUP3 DUP2 LT ISZERO PUSH2 0xC12 JUMPI DUP5 DUP10 ADD MLOAD DUP3 SSTORE PUSH1 0x1 DUP3 ADD SWAP2 POP PUSH1 0x20 DUP6 ADD SWAP5 POP PUSH1 0x20 DUP2 ADD SWAP1 POP PUSH2 0xBED JUMP JUMPDEST DUP7 DUP4 LT ISZERO PUSH2 0xC2F JUMPI DUP5 DUP10 ADD MLOAD PUSH2 0xC2B PUSH1 0x1F DUP10 AND DUP3 PUSH2 0xB38 JUMP JUMPDEST DUP4 SSTORE POP JUMPDEST PUSH1 0x1 PUSH1 0x2 DUP9 MUL ADD DUP9 SSTORE POP POP POP JUMPDEST POP POP POP POP POP POP JUMP JUMPDEST PUSH32 0x4E487B7100000000000000000000000000000000000000000000000000000000 PUSH1 0x0 MSTORE PUSH1 0x11 PUSH1 0x4 MSTORE PUSH1 0x24 PUSH1 0x0 REVERT JUMPDEST PUSH1 0x0 PUSH2 0xC7E DUP3 PUSH2 0x57B JUMP JUMPDEST SWAP2 POP PUSH32 0xFFFFFFFFFFFFFFFFFFFFFFFFFFFFFFFFFFFFFFFFFFFFFFFFFFFFFFFFFFFFFFFF DUP3 SUB PUSH2 0xCB0 JUMPI PUSH2 0xCAF PUSH2 0xC44 JUMP JUMPDEST JUMPDEST PUSH1 0x1 DUP3 ADD SWAP1 POP SWAP2 SWAP1 POP JUMP JUMPDEST PUSH32 0x4E657720706F6B656D6F6E206372656174656400000000000000000000000000 PUSH1 0x0 DUP3 ADD MSTORE POP JUMP JUMPDEST PUSH1 0x0 PUSH2 0xCF1 PUSH1 0x13 DUP4 PUSH2 0x87D JUMP JUMPDEST SWAP2 POP PUSH2 0xCFC DUP3 PUSH2 0xCBB JUMP JUMPDEST PUSH1 0x20 DUP3 ADD SWAP1 POP SWAP2 SWAP1 POP JUMP JUMPDEST PUSH1 0x0 PUSH1 0x40 DUP3 ADD SWAP1 POP PUSH2 0xD1C PUSH1 0x0 DUP4 ADD DUP5 PUSH2 0x845 JUMP JUMPDEST DUP2 DUP2 SUB PUSH1 0x20 DUP4 ADD MSTORE PUSH2 0xD2D DUP2 PUSH2 0xCE4 JUMP JUMPDEST SWAP1 POP SWAP3 SWAP2 POP POP JUMP JUMPDEST PUSH1 0x0 PUSH2 0xD40 DUP3 PUSH2 0x57B JUMP JUMPDEST SWAP2 POP PUSH2 0xD4B DUP4 PUSH2 0x57B JUMP JUMPDEST SWAP3 POP DUP3 DUP3 MUL PUSH2 0xD59 DUP2 PUSH2 0x57B JUMP JUMPDEST SWAP2 POP DUP3 DUP3 DIV DUP5 EQ DUP4 ISZERO OR PUSH2 0xD70 JUMPI PUSH2 0xD6F PUSH2 0xC44 JUMP JUMPDEST JUMPDEST POP SWAP3 SWAP2 POP POP JUMP JUMPDEST PUSH1 0x0 PUSH2 0xD82 DUP3 PUSH2 0x57B JUMP JUMPDEST SWAP2 POP PUSH2 0xD8D DUP4 PUSH2 0x57B JUMP JUMPDEST SWAP3 POP DUP3 DUP3 ADD SWAP1 POP DUP1 DUP3 GT ISZERO PUSH2 0xDA5 JUMPI PUSH2 0xDA4 PUSH2 0xC44 JUMP JUMPDEST JUMPDEST SWAP3 SWAP2 POP POP JUMP INVALID LOG2 PUSH5 0x6970667358 0x22 SLT KECCAK256 LOG0 0xD2 0x2D 0xE4 SUB JUMPI 0xB6 0xB3 EQ 0xEE SWAP10 SHL 0x1F 0xDD 0xEB 0xC6 SELFDESTRUCT DELEGATECALL 0x25 AND SWAP8 0xC9 GASPRICE ADDRESS 0x25 NUMBER 0xC7 SWAP7 LT DUP6 SWAP7 PUSH14 0x64736F6C63430008120033000000 "},"methodIdentifiers":{"createPokemon(string,uint256)":"0a3bd50b","getAllPokemons()":"5e916790","getResult()":"de292789","pokemonToOwner(uint256)":"2f7467b3"}}}}}