{"contracts/PokemonFactory.sol":{"PokemonFactory":{"abi":[{"anonymous":false,"inputs":[{"indexed":true,"internalType":"address","name":"_from","type":"address"},{"indexed":false,"internalType":"uint256","name":"_id","type":"uint256"},{"indexed":false,"internalType":"string","name":"_value","type":"string"}],"name":"CreatedPokemon","type":"event"},{"inputs":[{"internalType":"string","name":"_skillName","type":"string"},{"internalType":"string","name":"_skillDesc","type":"string"},{"internalType":"uint256","name":"_id","type":"uint256"},{"internalType":"uint256","name":"_skillnumber","type":"uint256"}],"name":"addSkill","outputs":[],"stateMutability":"nonpayable","type":"function"},{"inputs":[{"internalType":"string","name":"_type","type":"string"},{"internalType":"uint256","name":"_id","type":"uint256"},{"internalType":"uint256","name":"_typeNumber","type":"uint256"}],"name":"addType","outputs":[],"stateMutability":"nonpayable","type":"function"},{"inputs":[{"internalType":"string","name":"_weakness","type":"string"},{"internalType":"uint256","name":"_id","type":"uint256"},{"internalType":"uint256","name":"_weakNumber","type":"uint256"}],"name":"addWeakness","outputs":[],"stateMutability":"nonpayable","type":"function"},{"inputs":[{"internalType":"string","name":"_name","type":"string"},{"internalType":"uint256","name":"_id","type":"uint256"}],"name":"createPokemon","outputs":[],"stateMutability":"nonpayable","type":"function"},{"inputs":[],"name":"getAllPokemons","outputs":[{"components":[{"internalType":"uint256","name":"id","type":"uint256"},{"internalType":"string","name":"name","type":"string"}],"internalType":"struct PokemonFactory.Pokemon[]","name":"","type":"tuple[]"}],"stateMutability":"view","type":"function"},{"inputs":[],"name":"getResult","outputs":[{"internalType":"uint256","name":"product","type":"uint256"},{"internalType":"uint256","name":"sum","type":"uint256"}],"stateMutability":"pure","type":"function"},{"inputs":[{"internalType":"uint256","name":"","type":"uint256"},{"internalType":"uint256","name":"","type":"uint256"}],"name":"pokemonSkills","outputs":[{"internalType":"string","name":"Name","type":"string"},{"internalType":"string","name":"Description","type":"string"}],"stateMutability":"view","type":"function"},{"inputs":[{"internalType":"uint256","name":"","type":"uint256"}],"name":"pokemonToOwner","outputs":[{"internalType":"address","name":"","type":"address"}],"stateMutability":"view","type":"function"},{"inputs":[{"internalType":"uint256","name":"","type":"uint256"},{"internalType":"uint256","name":"","type":"uint256"}],"name":"pokemonTypes","outputs":[{"internalType":"string","name":"","type":"string"}],"stateMutability":"view","type":"function"},{"inputs":[{"internalType":"uint256","name":"","type":"uint256"},{"internalType":"uint256","name":"","type":"uint256"}],"name":"pokemonWeaknesses","outputs":[{"internalType":"string","name":"","type":"string"}],"stateMutability":"view","type":"function"}],"evm":{"bytecode":{"linkReferences":{},"object":"608060405234801561001057600080fd5b5061222e806100206000396000f3fe608060405234801561001057600080fd5b506004361061009e5760003560e01c8063930936781161006657806393093678146101595780639d8cb6351461018a578063b827de19146101a6578063cd051a6a146101d6578063de292789146101f25761009e565b80630a3bd50b146100a35780632f7467b3146100bf57806336fd33b9146100ef5780635e9167901461010b57806389d9312c14610129575b600080fd5b6100bd60048036038101906100b89190611270565b610211565b005b6100d960048036038101906100d491906112cc565b6103f9565b6040516100e6919061133a565b60405180910390f35b61010960048036038101906101049190611355565b61042c565b005b6101136105c5565b6040516101209190611551565b60405180910390f35b610143600480360381019061013e9190611573565b6106c0565b60405161015091906115fd565b60405180910390f35b610173600480360381019061016e9190611573565b61076d565b60405161018192919061161f565b60405180910390f35b6101a4600480360381019061019f9190611656565b6108ae565b005b6101c060048036038101906101bb9190611573565b610ac8565b6040516101cd91906115fd565b60405180910390f35b6101f060048036038101906101eb9190611355565b610b75565b005b6101fa610d0e565b604051610208929190611704565b60405180910390f35b60008111610254576040517f08c379a000000000000000000000000000000000000000000000000000000000815260040161024b90611779565b60405180910390fd5b6000829050600281511161029d576040517f08c379a0000000000000000000000000000000000000000000000000000000008152600401610294906117e5565b60405180910390fd5b600060405180604001604052808481526020018581525090806001815401808255809150506001900390600052602060002090600202016000909190919091506000820151816000015560208201518160010190816102fc9190611a11565b505050336001600084815260200190815260200160002060006101000a81548173ffffffffffffffffffffffffffffffffffffffff021916908373ffffffffffffffffffffffffffffffffffffffff160217905550600260003373ffffffffffffffffffffffffffffffffffffffff1673ffffffffffffffffffffffffffffffffffffffff16815260200190815260200160002060008154809291906103a190611b12565b91905055503373ffffffffffffffffffffffffffffffffffffffff167f4703b8523faaced5a5c33cf4d0d29396368e826fa09b85f6a13203d22f8c34d4836040516103ec9190611ba6565b60405180910390a2505050565b60016020528060005260406000206000915054906101000a900473ffffffffffffffffffffffffffffffffffffffff1681565b6000821161046f576040517f08c379a000000000000000000000000000000000000000000000000000000000815260040161046690611779565b60405180910390fd5b600081116104b2576040517f08c379a00000000000000000000000000000000000000000000000000000000081526004016104a990611c46565b60405180910390fd5b600083905060028151116104fb576040517f08c379a00000000000000000000000000000000000000000000000000000000081526004016104f290611cd8565b60405180910390fd5b61050483610d3f565b610543576040517f08c379a000000000000000000000000000000000000000000000000000000000815260040161053a90611d44565b60405180910390fd5b61054d8383610db1565b1561058d576040517f08c379a000000000000000000000000000000000000000000000000000000000815260040161058490611db0565b60405180910390fd5b8360046000858152602001908152602001600020600084815260200190815260200160002090816105be9190611a11565b5050505050565b60606000805480602002602001604051908101604052809291908181526020016000905b828210156106b757838290600052602060002090600202016040518060400160405290816000820154815260200160018201805461062690611834565b80601f016020809104026020016040519081016040528092919081815260200182805461065290611834565b801561069f5780601f106106745761010080835404028352916020019161069f565b820191906000526020600020905b81548152906001019060200180831161068257829003601f168201915b505050505081525050815260200190600101906105e9565b50505050905090565b60046020528160005260406000206020528060005260406000206000915091505080546106ec90611834565b80601f016020809104026020016040519081016040528092919081815260200182805461071890611834565b80156107655780601f1061073a57610100808354040283529160200191610765565b820191906000526020600020905b81548152906001019060200180831161074857829003601f168201915b505050505081565b60036020528160005260406000206020528060005260406000206000915091505080600001805461079d90611834565b80601f01602080910402602001604051908101604052809291908181526020018280546107c990611834565b80156108165780601f106107eb57610100808354040283529160200191610816565b820191906000526020600020905b8154815290600101906020018083116107f957829003601f168201915b50505050509080600101805461082b90611834565b80601f016020809104026020016040519081016040528092919081815260200182805461085790611834565b80156108a45780601f10610879576101008083540402835291602001916108a4565b820191906000526020600020905b81548152906001019060200180831161088757829003601f168201915b5050505050905082565b600082116108f1576040517f08c379a00000000000000000000000000000000000000000000000000000000081526004016108e890611779565b60405180910390fd5b60008111610934576040517f08c379a000000000000000000000000000000000000000000000000000000000815260040161092b90611e42565b60405180910390fd5b6000849050600281511161097d576040517f08c379a000000000000000000000000000000000000000000000000000000000815260040161097490611ed4565b60405180910390fd5b6000849050600a8151116109c6576040517f08c379a00000000000000000000000000000000000000000000000000000000081526004016109bd90611f66565b60405180910390fd5b6109cf84610d3f565b610a0e576040517f08c379a0000000000000000000000000000000000000000000000000000000008152600401610a0590611d44565b60405180910390fd5b610a188484610e82565b15610a58576040517f08c379a0000000000000000000000000000000000000000000000000000000008152600401610a4f90611fd2565b60405180910390fd5b6040518060400160405280878152602001868152506003600086815260200190815260200160002060008581526020019081526020016000206000820151816000019081610aa69190611a11565b506020820151816001019081610abc9190611a11565b50905050505050505050565b6005602052816000526040600020602052806000526040600020600091509150508054610af490611834565b80601f0160208091040260200160405190810160405280929190818152602001828054610b2090611834565b8015610b6d5780601f10610b4257610100808354040283529160200191610b6d565b820191906000526020600020905b815481529060010190602001808311610b5057829003601f168201915b505050505081565b60008211610bb8576040517f08c379a0000000000000000000000000000000000000000000000000000000008152600401610baf90611779565b60405180910390fd5b60008111610bfb576040517f08c379a0000000000000000000000000000000000000000000000000000000008152600401610bf290612064565b60405180910390fd5b60008390506002815111610c44576040517f08c379a0000000000000000000000000000000000000000000000000000000008152600401610c3b906120f6565b60405180910390fd5b610c4d83610d3f565b610c8c576040517f08c379a0000000000000000000000000000000000000000000000000000000008152600401610c8390611d44565b60405180910390fd5b610c96838361100f565b15610cd6576040517f08c379a0000000000000000000000000000000000000000000000000000000008152600401610ccd90612162565b60405180910390fd5b836005600085815260200190815260200160002060008481526020019081526020016000209081610d079190611a11565b5050505050565b6000806000600190506000600290508082610d299190612182565b93508082610d3791906121c4565b925050509091565b6000806001600084815260200190815260200160002060009054906101000a900473ffffffffffffffffffffffffffffffffffffffff169050600073ffffffffffffffffffffffffffffffffffffffff168173ffffffffffffffffffffffffffffffffffffffff161415915050919050565b6000806004600085815260200190815260200160002060008481526020019081526020016000208054610de390611834565b80601f0160208091040260200160405190810160405280929190818152602001828054610e0f90611834565b8015610e5c5780601f10610e3157610100808354040283529160200191610e5c565b820191906000526020600020905b815481529060010190602001808311610e3f57829003601f168201915b505050505090506000815103610e76576000915050610e7c565b60019150505b92915050565b600080600360008581526020019081526020016000206000848152602001908152602001600020604051806040016040529081600082018054610ec490611834565b80601f0160208091040260200160405190810160405280929190818152602001828054610ef090611834565b8015610f3d5780601f10610f1257610100808354040283529160200191610f3d565b820191906000526020600020905b815481529060010190602001808311610f2057829003601f168201915b50505050508152602001600182018054610f5690611834565b80601f0160208091040260200160405190810160405280929190818152602001828054610f8290611834565b8015610fcf5780601f10610fa457610100808354040283529160200191610fcf565b820191906000526020600020905b815481529060010190602001808311610fb257829003601f168201915b50505050508152505090506000816000015151148015610ff457506000816020015151145b15611003576000915050611009565b60019150505b92915050565b600080600560008581526020019081526020016000206000848152602001908152602001600020805461104190611834565b80601f016020809104026020016040519081016040528092919081815260200182805461106d90611834565b80156110ba5780601f1061108f576101008083540402835291602001916110ba565b820191906000526020600020905b81548152906001019060200180831161109d57829003601f168201915b5050505050905060008151036110d45760009150506110da565b60019150505b92915050565b6000604051905090565b600080fd5b600080fd5b600080fd5b600080fd5b6000601f19601f8301169050919050565b7f4e487b7100000000000000000000000000000000000000000000000000000000600052604160045260246000fd5b611147826110fe565b810181811067ffffffffffffffff821117156111665761116561110f565b5b80604052505050565b60006111796110e0565b9050611185828261113e565b919050565b600067ffffffffffffffff8211156111a5576111a461110f565b5b6111ae826110fe565b9050602081019050919050565b82818337600083830152505050565b60006111dd6111d88461118a565b61116f565b9050828152602081018484840111156111f9576111f86110f9565b5b6112048482856111bb565b509392505050565b600082601f830112611221576112206110f4565b5b81356112318482602086016111ca565b91505092915050565b6000819050919050565b61124d8161123a565b811461125857600080fd5b50565b60008135905061126a81611244565b92915050565b60008060408385031215611287576112866110ea565b5b600083013567ffffffffffffffff8111156112a5576112a46110ef565b5b6112b18582860161120c565b92505060206112c28582860161125b565b9150509250929050565b6000602082840312156112e2576112e16110ea565b5b60006112f08482850161125b565b91505092915050565b600073ffffffffffffffffffffffffffffffffffffffff82169050919050565b6000611324826112f9565b9050919050565b61133481611319565b82525050565b600060208201905061134f600083018461132b565b92915050565b60008060006060848603121561136e5761136d6110ea565b5b600084013567ffffffffffffffff81111561138c5761138b6110ef565b5b6113988682870161120c565b93505060206113a98682870161125b565b92505060406113ba8682870161125b565b9150509250925092565b600081519050919050565b600082825260208201905092915050565b6000819050602082019050919050565b6113f98161123a565b82525050565b600081519050919050565b600082825260208201905092915050565b60005b8381101561143957808201518184015260208101905061141e565b60008484015250505050565b6000611450826113ff565b61145a818561140a565b935061146a81856020860161141b565b611473816110fe565b840191505092915050565b600060408301600083015161149660008601826113f0565b50602083015184820360208601526114ae8282611445565b9150508091505092915050565b60006114c7838361147e565b905092915050565b6000602082019050919050565b60006114e7826113c4565b6114f181856113cf565b935083602082028501611503856113e0565b8060005b8581101561153f578484038952815161152085826114bb565b945061152b836114cf565b925060208a01995050600181019050611507565b50829750879550505050505092915050565b6000602082019050818103600083015261156b81846114dc565b905092915050565b6000806040838503121561158a576115896110ea565b5b60006115988582860161125b565b92505060206115a98582860161125b565b9150509250929050565b600082825260208201905092915050565b60006115cf826113ff565b6115d981856115b3565b93506115e981856020860161141b565b6115f2816110fe565b840191505092915050565b6000602082019050818103600083015261161781846115c4565b905092915050565b6000604082019050818103600083015261163981856115c4565b9050818103602083015261164d81846115c4565b90509392505050565b600080600080608085870312156116705761166f6110ea565b5b600085013567ffffffffffffffff81111561168e5761168d6110ef565b5b61169a8782880161120c565b945050602085013567ffffffffffffffff8111156116bb576116ba6110ef565b5b6116c78782880161120c565b93505060406116d88782880161125b565b92505060606116e98782880161125b565b91505092959194509250565b6116fe8161123a565b82525050565b600060408201905061171960008301856116f5565b61172660208301846116f5565b9392505050565b7f4944206d75737420626520626967676572207468616e20300000000000000000600082015250565b60006117636018836115b3565b915061176e8261172d565b602082019050919050565b6000602082019050818103600083015261179281611756565b9050919050565b7f4e616d65206d7573742068617665206174206c65617374203220636861727300600082015250565b60006117cf601f836115b3565b91506117da82611799565b602082019050919050565b600060208201905081810360008301526117fe816117c2565b9050919050565b7f4e487b7100000000000000000000000000000000000000000000000000000000600052602260045260246000fd5b6000600282049050600182168061184c57607f821691505b60208210810361185f5761185e611805565b5b50919050565b60008190508160005260206000209050919050565b60006020601f8301049050919050565b600082821b905092915050565b6000600883026118c77fffffffffffffffffffffffffffffffffffffffffffffffffffffffffffffffff8261188a565b6118d1868361188a565b95508019841693508086168417925050509392505050565b6000819050919050565b600061190e6119096119048461123a565b6118e9565b61123a565b9050919050565b6000819050919050565b611928836118f3565b61193c61193482611915565b848454611897565b825550505050565b600090565b611951611944565b61195c81848461191f565b505050565b5b8181101561198057611975600082611949565b600181019050611962565b5050565b601f8211156119c55761199681611865565b61199f8461187a565b810160208510156119ae578190505b6119c26119ba8561187a565b830182611961565b50505b505050565b600082821c905092915050565b60006119e8600019846008026119ca565b1980831691505092915050565b6000611a0183836119d7565b9150826002028217905092915050565b611a1a826113ff565b67ffffffffffffffff811115611a3357611a3261110f565b5b611a3d8254611834565b611a48828285611984565b600060209050601f831160018114611a7b5760008415611a69578287015190505b611a7385826119f5565b865550611adb565b601f198416611a8986611865565b60005b82811015611ab157848901518255600182019150602085019450602081019050611a8c565b86831015611ace5784890151611aca601f8916826119d7565b8355505b6001600288020188555050505b505050505050565b7f4e487b7100000000000000000000000000000000000000000000000000000000600052601160045260246000fd5b6000611b1d8261123a565b91507fffffffffffffffffffffffffffffffffffffffffffffffffffffffffffffffff8203611b4f57611b4e611ae3565b5b600182019050919050565b7f4e657720706f6b656d6f6e206372656174656400000000000000000000000000600082015250565b6000611b906013836115b3565b9150611b9b82611b5a565b602082019050919050565b6000604082019050611bbb60008301846116f5565b8181036020830152611bcc81611b83565b905092915050565b7f54797065206e756d626572206d75737420626520626967676572207468616e2060008201527f3000000000000000000000000000000000000000000000000000000000000000602082015250565b6000611c306021836115b3565b9150611c3b82611bd4565b604082019050919050565b60006020820190508181036000830152611c5f81611c23565b9050919050565b7f496e70757420612076616c69642074797065206e616d652c206174206c65617360008201527f7420322063686172730000000000000000000000000000000000000000000000602082015250565b6000611cc26029836115b3565b9150611ccd82611c66565b604082019050919050565b60006020820190508181036000830152611cf181611cb5565b9050919050565b7f496420646f6573206e6f74206578697374000000000000000000000000000000600082015250565b6000611d2e6011836115b3565b9150611d3982611cf8565b602082019050919050565b60006020820190508181036000830152611d5d81611d21565b9050919050565b7f5468697320747970652065786973747320616c72656164790000000000000000600082015250565b6000611d9a6018836115b3565b9150611da582611d64565b602082019050919050565b60006020820190508181036000830152611dc981611d8d565b9050919050565b7f536b696c6c206e756d626572206d75737420626520626967676572207468616e60008201527f2030000000000000000000000000000000000000000000000000000000000000602082015250565b6000611e2c6022836115b3565b9150611e3782611dd0565b604082019050919050565b60006020820190508181036000830152611e5b81611e1f565b9050919050565b7f496e70757420612076616c696420736b696c6c206e616d652c206174206c656160008201527f7374203220636861727300000000000000000000000000000000000000000000602082015250565b6000611ebe602a836115b3565b9150611ec982611e62565b604082019050919050565b60006020820190508181036000830152611eed81611eb1565b9050919050565b7f496e70757420612076616c696420736b696c6c206465736372697074696f6e2c60008201527f206174206c656173742031302063686172730000000000000000000000000000602082015250565b6000611f506032836115b3565b9150611f5b82611ef4565b604082019050919050565b60006020820190508181036000830152611f7f81611f43565b9050919050565b7f5468697320736b696c6c2065786973747320616c726561647900000000000000600082015250565b6000611fbc6019836115b3565b9150611fc782611f86565b602082019050919050565b60006020820190508181036000830152611feb81611faf565b9050919050565b7f5765616b6e657373206e756d626572206d75737420626520626967676572207460008201527f68616e2030000000000000000000000000000000000000000000000000000000602082015250565b600061204e6025836115b3565b915061205982611ff2565b604082019050919050565b6000602082019050818103600083015261207d81612041565b9050919050565b7f496e70757420612076616c6964207765616b6e657373206e616d652c2061742060008201527f6c65617374203220636861727300000000000000000000000000000000000000602082015250565b60006120e0602d836115b3565b91506120eb82612084565b604082019050919050565b6000602082019050818103600083015261210f816120d3565b9050919050565b7f54686973207765616b6e6573732065786973747320616c726561647900000000600082015250565b600061214c601c836115b3565b915061215782612116565b602082019050919050565b6000602082019050818103600083015261217b8161213f565b9050919050565b600061218d8261123a565b91506121988361123a565b92508282026121a68161123a565b915082820484148315176121bd576121bc611ae3565b5b5092915050565b60006121cf8261123a565b91506121da8361123a565b92508282019050808211156121f2576121f1611ae3565b5b9291505056fea26469706673582212203d1bdba58cdf2367b737a2983dff29a59421d7ceb50987f875b6901aab8dedd964736f6c63430008120033","opcodes":"PUSH1 0x80 PUSH1 0x40 MSTORE CALLVALUE DUP1 ISZERO PUSH2 0x10 JUMPI PUSH1 0x0 DUP1 REVERT JUMPDEST POP PUSH2 0x222E DUP1 PUSH2 0x20 PUSH1 0x0 CODECOPY PUSH1 0x0 RETURN INVALID PUSH1 0x80 PUSH1 0x40 MSTORE CALLVALUE DUP1 ISZERO PUSH2 0x10 JUMPI PUSH1 0x0 DUP1 REVERT JUMPDEST POP PUSH1 0x4 CALLDATASIZE LT PUSH2 0x9E JUMPI PUSH1 0x0 CALLDATALOAD PUSH1 0xE0 SHR DUP1 PUSH4 0x93093678 GT PUSH2 0x66 JUMPI DUP1 PUSH4 0x93093678 EQ PUSH2 0x159 JUMPI DUP1 PUSH4 0x9D8CB635 EQ PUSH2 0x18A JUMPI DUP1 PUSH4 0xB827DE19 EQ PUSH2 0x1A6 JUMPI DUP1 PUSH4 0xCD051A6A EQ PUSH2 0x1D6 JUMPI DUP1 PUSH4 0xDE292789 EQ PUSH2 0x1F2 JUMPI PUSH2 0x9E JUMP JUMPDEST DUP1 PUSH4 0xA3BD50B EQ PUSH2 0xA3 JUMPI DUP1 PUSH4 0x2F7467B3 EQ PUSH2 0xBF JUMPI DUP1 PUSH4 0x36FD33B9 EQ PUSH2 0xEF JUMPI DUP1 PUSH4 0x5E916790 EQ PUSH2 0x10B JUMPI DUP1 PUSH4 0x89D9312C EQ PUSH2 0x129 JUMPI JUMPDEST PUSH1 0x0 DUP1 REVERT JUMPDEST PUSH2 0xBD PUSH1 0x4 DUP1 CALLDATASIZE SUB DUP2 ADD SWAP1 PUSH2 0xB8 SWAP2 SWAP1 PUSH2 0x1270 JUMP JUMPDEST PUSH2 0x211 JUMP JUMPDEST STOP JUMPDEST PUSH2 0xD9 PUSH1 0x4 DUP1 CALLDATASIZE SUB DUP2 ADD SWAP1 PUSH2 0xD4 SWAP2 SWAP1 PUSH2 0x12CC JUMP JUMPDEST PUSH2 0x3F9 JUMP JUMPDEST PUSH1 0x40 MLOAD PUSH2 0xE6 SWAP2 SWAP1 PUSH2 0x133A JUMP JUMPDEST PUSH1 0x40 MLOAD DUP1 SWAP2 SUB SWAP1 RETURN JUMPDEST PUSH2 0x109 PUSH1 0x4 DUP1 CALLDATASIZE SUB DUP2 ADD SWAP1 PUSH2 0x104 SWAP2 SWAP1 PUSH2 0x1355 JUMP JUMPDEST PUSH2 0x42C JUMP JUMPDEST STOP JUMPDEST PUSH2 0x113 PUSH2 0x5C5 JUMP JUMPDEST PUSH1 0x40 MLOAD PUSH2 0x120 SWAP2 SWAP1 PUSH2 0x1551 JUMP JUMPDEST PUSH1 0x40 MLOAD DUP1 SWAP2 SUB SWAP1 RETURN JUMPDEST PUSH2 0x143 PUSH1 0x4 DUP1 CALLDATASIZE SUB DUP2 ADD SWAP1 PUSH2 0x13E SWAP2 SWAP1 PUSH2 0x1573 JUMP JUMPDEST PUSH2 0x6C0 JUMP JUMPDEST PUSH1 0x40 MLOAD PUSH2 0x150 SWAP2 SWAP1 PUSH2 0x15FD JUMP JUMPDEST PUSH1 0x40 MLOAD DUP1 SWAP2 SUB SWAP1 RETURN JUMPDEST PUSH2 0x173 PUSH1 0x4 DUP1 CALLDATASIZE SUB DUP2 ADD SWAP1 PUSH2 0x16E SWAP2 SWAP1 PUSH2 0x1573 JUMP JUMPDEST PUSH2 0x76D JUMP JUMPDEST PUSH1 0x40 MLOAD PUSH2 0x181 SWAP3 SWAP2 SWAP1 PUSH2 0x161F JUMP JUMPDEST PUSH1 0x40 MLOAD DUP1 SWAP2 SUB SWAP1 RETURN JUMPDEST PUSH2 0x1A4 PUSH1 0x4 DUP1 CALLDATASIZE SUB DUP2 ADD SWAP1 PUSH2 0x19F SWAP2 SWAP1 PUSH2 0x1656 JUMP JUMPDEST PUSH2 0x8AE JUMP JUMPDEST STOP JUMPDEST PUSH2 0x1C0 PUSH1 0x4 DUP1 CALLDATASIZE SUB DUP2 ADD SWAP1 PUSH2 0x1BB SWAP2 SWAP1 PUSH2 0x1573 JUMP JUMPDEST PUSH2 0xAC8 JUMP JUMPDEST PUSH1 0x40 MLOAD PUSH2 0x1CD SWAP2 SWAP1 PUSH2 0x15FD JUMP JUMPDEST PUSH1 0x40 MLOAD DUP1 SWAP2 SUB SWAP1 RETURN JUMPDEST PUSH2 0x1F0 PUSH1 0x4 DUP1 CALLDATASIZE SUB DUP2 ADD SWAP1 PUSH2 0x1EB SWAP2 SWAP1 PUSH2 0x1355 JUMP JUMPDEST PUSH2 0xB75 JUMP JUMPDEST STOP JUMPDEST PUSH2 0x1FA PUSH2 0xD0E JUMP JUMPDEST PUSH1 0x40 MLOAD PUSH2 0x208 SWAP3 SWAP2 SWAP1 PUSH2 0x1704 JUMP JUMPDEST PUSH1 0x40 MLOAD DUP1 SWAP2 SUB SWAP1 RETURN JUMPDEST PUSH1 0x0 DUP2 GT PUSH2 0x254 JUMPI PUSH1 0x40 MLOAD PUSH32 0x8C379A000000000000000000000000000000000000000000000000000000000 DUP2 MSTORE PUSH1 0x4 ADD PUSH2 0x24B SWAP1 PUSH2 0x1779 JUMP JUMPDEST PUSH1 0x40 MLOAD DUP1 SWAP2 SUB SWAP1 REVERT JUMPDEST PUSH1 0x0 DUP3 SWAP1 POP PUSH1 0x2 DUP2 MLOAD GT PUSH2 0x29D JUMPI PUSH1 0x40 MLOAD PUSH32 0x8C379A000000000000000000000000000000000000000000000000000000000 DUP2 MSTORE PUSH1 0x4 ADD PUSH2 0x294 SWAP1 PUSH2 0x17E5 JUMP JUMPDEST PUSH1 0x40 MLOAD DUP1 SWAP2 SUB SWAP1 REVERT JUMPDEST PUSH1 0x0 PUSH1 0x40 MLOAD DUP1 PUSH1 0x40 ADD PUSH1 0x40 MSTORE DUP1 DUP5 DUP2 MSTORE PUSH1 0x20 ADD DUP6 DUP2 MSTORE POP SWAP1 DUP1 PUSH1 0x1 DUP2 SLOAD ADD DUP1 DUP3 SSTORE DUP1 SWAP2 POP POP PUSH1 0x1 SWAP1 SUB SWAP1 PUSH1 0x0 MSTORE PUSH1 0x20 PUSH1 0x0 KECCAK256 SWAP1 PUSH1 0x2 MUL ADD PUSH1 0x0 SWAP1 SWAP2 SWAP1 SWAP2 SWAP1 SWAP2 POP PUSH1 0x0 DUP3 ADD MLOAD DUP2 PUSH1 0x0 ADD SSTORE PUSH1 0x20 DUP3 ADD MLOAD DUP2 PUSH1 0x1 ADD SWAP1 DUP2 PUSH2 0x2FC SWAP2 SWAP1 PUSH2 0x1A11 JUMP JUMPDEST POP POP POP CALLER PUSH1 0x1 PUSH1 0x0 DUP5 DUP2 MSTORE PUSH1 0x20 ADD SWAP1 DUP2 MSTORE PUSH1 0x20 ADD PUSH1 0x0 KECCAK256 PUSH1 0x0 PUSH2 0x100 EXP DUP2 SLOAD DUP2 PUSH20 0xFFFFFFFFFFFFFFFFFFFFFFFFFFFFFFFFFFFFFFFF MUL NOT AND SWAP1 DUP4 PUSH20 0xFFFFFFFFFFFFFFFFFFFFFFFFFFFFFFFFFFFFFFFF AND MUL OR SWAP1 SSTORE POP PUSH1 0x2 PUSH1 0x0 CALLER PUSH20 0xFFFFFFFFFFFFFFFFFFFFFFFFFFFFFFFFFFFFFFFF AND PUSH20 0xFFFFFFFFFFFFFFFFFFFFFFFFFFFFFFFFFFFFFFFF AND DUP2 MSTORE PUSH1 0x20 ADD SWAP1 DUP2 MSTORE PUSH1 0x20 ADD PUSH1 0x0 KECCAK256 PUSH1 0x0 DUP2 SLOAD DUP1 SWAP3 SWAP2 SWAP1 PUSH2 0x3A1 SWAP1 PUSH2 0x1B12 JUMP JUMPDEST SWAP2 SWAP1 POP SSTORE POP CALLER PUSH20 0xFFFFFFFFFFFFFFFFFFFFFFFFFFFFFFFFFFFFFFFF AND PUSH32 0x4703B8523FAACED5A5C33CF4D0D29396368E826FA09B85F6A13203D22F8C34D4 DUP4 PUSH1 0x40 MLOAD PUSH2 0x3EC SWAP2 SWAP1 PUSH2 0x1BA6 JUMP JUMPDEST PUSH1 0x40 MLOAD DUP1 SWAP2 SUB SWAP1 LOG2 POP POP POP JUMP JUMPDEST PUSH1 0x1 PUSH1 0x20 MSTORE DUP1 PUSH1 0x0 MSTORE PUSH1 0x40 PUSH1 0x0 KECCAK256 PUSH1 0x0 SWAP2 POP SLOAD SWAP1 PUSH2 0x100 EXP SWAP1 DIV PUSH20 0xFFFFFFFFFFFFFFFFFFFFFFFFFFFFFFFFFFFFFFFF AND DUP2 JUMP JUMPDEST PUSH1 0x0 DUP3 GT PUSH2 0x46F JUMPI PUSH1 0x40 MLOAD PUSH32 0x8C379A000000000000000000000000000000000000000000000000000000000 DUP2 MSTORE PUSH1 0x4 ADD PUSH2 0x466 SWAP1 PUSH2 0x1779 JUMP JUMPDEST PUSH1 0x40 MLOAD DUP1 SWAP2 SUB SWAP1 REVERT JUMPDEST PUSH1 0x0 DUP2 GT PUSH2 0x4B2 JUMPI PUSH1 0x40 MLOAD PUSH32 0x8C379A000000000000000000000000000000000000000000000000000000000 DUP2 MSTORE PUSH1 0x4 ADD PUSH2 0x4A9 SWAP1 PUSH2 0x1C46 JUMP JUMPDEST PUSH1 0x40 MLOAD DUP1 SWAP2 SUB SWAP1 REVERT JUMPDEST PUSH1 0x0 DUP4 SWAP1 POP PUSH1 0x2 DUP2 MLOAD GT PUSH2 0x4FB JUMPI PUSH1 0x40 MLOAD PUSH32 0x8C379A000000000000000000000000000000000000000000000000000000000 DUP2 MSTORE PUSH1 0x4 ADD PUSH2 0x4F2 SWAP1 PUSH2 0x1CD8 JUMP JUMPDEST PUSH1 0x40 MLOAD DUP1 SWAP2 SUB SWAP1 REVERT JUMPDEST PUSH2 0x504 DUP4 PUSH2 0xD3F JUMP JUMPDEST PUSH2 0x543 JUMPI PUSH1 0x40 MLOAD PUSH32 0x8C379A000000000000000000000000000000000000000000000000000000000 DUP2 MSTORE PUSH1 0x4 ADD PUSH2 0x53A SWAP1 PUSH2 0x1D44 JUMP JUMPDEST PUSH1 0x40 MLOAD DUP1 SWAP2 SUB SWAP1 REVERT JUMPDEST PUSH2 0x54D DUP4 DUP4 PUSH2 0xDB1 JUMP JUMPDEST ISZERO PUSH2 0x58D JUMPI PUSH1 0x40 MLOAD PUSH32 0x8C379A000000000000000000000000000000000000000000000000000000000 DUP2 MSTORE PUSH1 0x4 ADD PUSH2 0x584 SWAP1 PUSH2 0x1DB0 JUMP JUMPDEST PUSH1 0x40 MLOAD DUP1 SWAP2 SUB SWAP1 REVERT JUMPDEST DUP4 PUSH1 0x4 PUSH1 0x0 DUP6 DUP2 MSTORE PUSH1 0x20 ADD SWAP1 DUP2 MSTORE PUSH1 0x20 ADD PUSH1 0x0 KECCAK256 PUSH1 0x0 DUP5 DUP2 MSTORE PUSH1 0x20 ADD SWAP1 DUP2 MSTORE PUSH1 0x20 ADD PUSH1 0x0 KECCAK256 SWAP1 DUP2 PUSH2 0x5BE SWAP2 SWAP1 PUSH2 0x1A11 JUMP JUMPDEST POP POP POP POP POP JUMP JUMPDEST PUSH1 0x60 PUSH1 0x0 DUP1 SLOAD DUP1 PUSH1 0x20 MUL PUSH1 0x20 ADD PUSH1 0x40 MLOAD SWAP1 DUP2 ADD PUSH1 0x40 MSTORE DUP1 SWAP3 SWAP2 SWAP1 DUP2 DUP2 MSTORE PUSH1 0x20 ADD PUSH1 0x0 SWAP1 JUMPDEST DUP3 DUP3 LT ISZERO PUSH2 0x6B7 JUMPI DUP4 DUP3 SWAP1 PUSH1 0x0 MSTORE PUSH1 0x20 PUSH1 0x0 KECCAK256 SWAP1 PUSH1 0x2 MUL ADD PUSH1 0x40 MLOAD DUP1 PUSH1 0x40 ADD PUSH1 0x40 MSTORE SWAP1 DUP2 PUSH1 0x0 DUP3 ADD SLOAD DUP2 MSTORE PUSH1 0x20 ADD PUSH1 0x1 DUP3 ADD DUP1 SLOAD PUSH2 0x626 SWAP1 PUSH2 0x1834 JUMP JUMPDEST DUP1 PUSH1 0x1F ADD PUSH1 0x20 DUP1 SWAP2 DIV MUL PUSH1 0x20 ADD PUSH1 0x40 MLOAD SWAP1 DUP2 ADD PUSH1 0x40 MSTORE DUP1 SWAP3 SWAP2 SWAP1 DUP2 DUP2 MSTORE PUSH1 0x20 ADD DUP3 DUP1 SLOAD PUSH2 0x652 SWAP1 PUSH2 0x1834 JUMP JUMPDEST DUP1 ISZERO PUSH2 0x69F JUMPI DUP1 PUSH1 0x1F LT PUSH2 0x674 JUMPI PUSH2 0x100 DUP1 DUP4 SLOAD DIV MUL DUP4 MSTORE SWAP2 PUSH1 0x20 ADD SWAP2 PUSH2 0x69F JUMP JUMPDEST DUP3 ADD SWAP2 SWAP1 PUSH1 0x0 MSTORE PUSH1 0x20 PUSH1 0x0 KECCAK256 SWAP1 JUMPDEST DUP2 SLOAD DUP2 MSTORE SWAP1 PUSH1 0x1 ADD SWAP1 PUSH1 0x20 ADD DUP1 DUP4 GT PUSH2 0x682 JUMPI DUP3 SWAP1 SUB PUSH1 0x1F AND DUP3 ADD SWAP2 JUMPDEST POP POP POP POP POP DUP2 MSTORE POP POP DUP2 MSTORE PUSH1 0x20 ADD SWAP1 PUSH1 0x1 ADD SWAP1 PUSH2 0x5E9 JUMP JUMPDEST POP POP POP POP SWAP1 POP SWAP1 JUMP JUMPDEST PUSH1 0x4 PUSH1 0x20 MSTORE DUP2 PUSH1 0x0 MSTORE PUSH1 0x40 PUSH1 0x0 KECCAK256 PUSH1 0x20 MSTORE DUP1 PUSH1 0x0 MSTORE PUSH1 0x40 PUSH1 0x0 KECCAK256 PUSH1 0x0 SWAP2 POP SWAP2 POP POP DUP1 SLOAD PUSH2 0x6EC SWAP1 PUSH2 0x1834 JUMP JUMPDEST DUP1 PUSH1 0x1F ADD PUSH1 0x20 DUP1 SWAP2 DIV MUL PUSH1 0x20 ADD PUSH1 0x40 MLOAD SWAP1 DUP2 ADD PUSH1 0x40 MSTORE DUP1 SWAP3 SWAP2 SWAP1 DUP2 DUP2 MSTORE PUSH1 0x20 ADD DUP3 DUP1 SLOAD PUSH2 0x718 SWAP1 PUSH2 0x1834 JUMP JUMPDEST DUP1 ISZERO PUSH2 0x765 JUMPI DUP1 PUSH1 0x1F LT PUSH2 0x73A JUMPI PUSH2 0x100 DUP1 DUP4 SLOAD DIV MUL DUP4 MSTORE SWAP2 PUSH1 0x20 ADD SWAP2 PUSH2 0x765 JUMP JUMPDEST DUP3 ADD SWAP2 SWAP1 PUSH1 0x0 MSTORE PUSH1 0x20 PUSH1 0x0 KECCAK256 SWAP1 JUMPDEST DUP2 SLOAD DUP2 MSTORE SWAP1 PUSH1 0x1 ADD SWAP1 PUSH1 0x20 ADD DUP1 DUP4 GT PUSH2 0x748 JUMPI DUP3 SWAP1 SUB PUSH1 0x1F AND DUP3 ADD SWAP2 JUMPDEST POP POP POP POP POP DUP2 JUMP JUMPDEST PUSH1 0x3 PUSH1 0x20 MSTORE DUP2 PUSH1 0x0 MSTORE PUSH1 0x40 PUSH1 0x0 KECCAK256 PUSH1 0x20 MSTORE DUP1 PUSH1 0x0 MSTORE PUSH1 0x40 PUSH1 0x0 KECCAK256 PUSH1 0x0 SWAP2 POP SWAP2 POP POP DUP1 PUSH1 0x0 ADD DUP1 SLOAD PUSH2 0x79D SWAP1 PUSH2 0x1834 JUMP JUMPDEST DUP1 PUSH1 0x1F ADD PUSH1 0x20 DUP1 SWAP2 DIV MUL PUSH1 0x20 ADD PUSH1 0x40 MLOAD SWAP1 DUP2 ADD PUSH1 0x40 MSTORE DUP1 SWAP3 SWAP2 SWAP1 DUP2 DUP2 MSTORE PUSH1 0x20 ADD DUP3 DUP1 SLOAD PUSH2 0x7C9 SWAP1 PUSH2 0x1834 JUMP JUMPDEST DUP1 ISZERO PUSH2 0x816 JUMPI DUP1 PUSH1 0x1F LT PUSH2 0x7EB JUMPI PUSH2 0x100 DUP1 DUP4 SLOAD DIV MUL DUP4 MSTORE SWAP2 PUSH1 0x20 ADD SWAP2 PUSH2 0x816 JUMP JUMPDEST DUP3 ADD SWAP2 SWAP1 PUSH1 0x0 MSTORE PUSH1 0x20 PUSH1 0x0 KECCAK256 SWAP1 JUMPDEST DUP2 SLOAD DUP2 MSTORE SWAP1 PUSH1 0x1 ADD SWAP1 PUSH1 0x20 ADD DUP1 DUP4 GT PUSH2 0x7F9 JUMPI DUP3 SWAP1 SUB PUSH1 0x1F AND DUP3 ADD SWAP2 JUMPDEST POP POP POP POP POP SWAP1 DUP1 PUSH1 0x1 ADD DUP1 SLOAD PUSH2 0x82B SWAP1 PUSH2 0x1834 JUMP JUMPDEST DUP1 PUSH1 0x1F ADD PUSH1 0x20 DUP1 SWAP2 DIV MUL PUSH1 0x20 ADD PUSH1 0x40 MLOAD SWAP1 DUP2 ADD PUSH1 0x40 MSTORE DUP1 SWAP3 SWAP2 SWAP1 DUP2 DUP2 MSTORE PUSH1 0x20 ADD DUP3 DUP1 SLOAD PUSH2 0x857 SWAP1 PUSH2 0x1834 JUMP JUMPDEST DUP1 ISZERO PUSH2 0x8A4 JUMPI DUP1 PUSH1 0x1F LT PUSH2 0x879 JUMPI PUSH2 0x100 DUP1 DUP4 SLOAD DIV MUL DUP4 MSTORE SWAP2 PUSH1 0x20 ADD SWAP2 PUSH2 0x8A4 JUMP JUMPDEST DUP3 ADD SWAP2 SWAP1 PUSH1 0x0 MSTORE PUSH1 0x20 PUSH1 0x0 KECCAK256 SWAP1 JUMPDEST DUP2 SLOAD DUP2 MSTORE SWAP1 PUSH1 0x1 ADD SWAP1 PUSH1 0x20 ADD DUP1 DUP4 GT PUSH2 0x887 JUMPI DUP3 SWAP1 SUB PUSH1 0x1F AND DUP3 ADD SWAP2 JUMPDEST POP POP POP POP POP SWAP1 POP DUP3 JUMP JUMPDEST PUSH1 0x0 DUP3 GT PUSH2 0x8F1 JUMPI PUSH1 0x40 MLOAD PUSH32 0x8C379A000000000000000000000000000000000000000000000000000000000 DUP2 MSTORE PUSH1 0x4 ADD PUSH2 0x8E8 SWAP1 PUSH2 0x1779 JUMP JUMPDEST PUSH1 0x40 MLOAD DUP1 SWAP2 SUB SWAP1 REVERT JUMPDEST PUSH1 0x0 DUP2 GT PUSH2 0x934 JUMPI PUSH1 0x40 MLOAD PUSH32 0x8C379A000000000000000000000000000000000000000000000000000000000 DUP2 MSTORE PUSH1 0x4 ADD PUSH2 0x92B SWAP1 PUSH2 0x1E42 JUMP JUMPDEST PUSH1 0x40 MLOAD DUP1 SWAP2 SUB SWAP1 REVERT JUMPDEST PUSH1 0x0 DUP5 SWAP1 POP PUSH1 0x2 DUP2 MLOAD GT PUSH2 0x97D JUMPI PUSH1 0x40 MLOAD PUSH32 0x8C379A000000000000000000000000000000000000000000000000000000000 DUP2 MSTORE PUSH1 0x4 ADD PUSH2 0x974 SWAP1 PUSH2 0x1ED4 JUMP JUMPDEST PUSH1 0x40 MLOAD DUP1 SWAP2 SUB SWAP1 REVERT JUMPDEST PUSH1 0x0 DUP5 SWAP1 POP PUSH1 0xA DUP2 MLOAD GT PUSH2 0x9C6 JUMPI PUSH1 0x40 MLOAD PUSH32 0x8C379A000000000000000000000000000000000000000000000000000000000 DUP2 MSTORE PUSH1 0x4 ADD PUSH2 0x9BD SWAP1 PUSH2 0x1F66 JUMP JUMPDEST PUSH1 0x40 MLOAD DUP1 SWAP2 SUB SWAP1 REVERT JUMPDEST PUSH2 0x9CF DUP5 PUSH2 0xD3F JUMP JUMPDEST PUSH2 0xA0E JUMPI PUSH1 0x40 MLOAD PUSH32 0x8C379A000000000000000000000000000000000000000000000000000000000 DUP2 MSTORE PUSH1 0x4 ADD PUSH2 0xA05 SWAP1 PUSH2 0x1D44 JUMP JUMPDEST PUSH1 0x40 MLOAD DUP1 SWAP2 SUB SWAP1 REVERT JUMPDEST PUSH2 0xA18 DUP5 DUP5 PUSH2 0xE82 JUMP JUMPDEST ISZERO PUSH2 0xA58 JUMPI PUSH1 0x40 MLOAD PUSH32 0x8C379A000000000000000000000000000000000000000000000000000000000 DUP2 MSTORE PUSH1 0x4 ADD PUSH2 0xA4F SWAP1 PUSH2 0x1FD2 JUMP JUMPDEST PUSH1 0x40 MLOAD DUP1 SWAP2 SUB SWAP1 REVERT JUMPDEST PUSH1 0x40 MLOAD DUP1 PUSH1 0x40 ADD PUSH1 0x40 MSTORE DUP1 DUP8 DUP2 MSTORE PUSH1 0x20 ADD DUP7 DUP2 MSTORE POP PUSH1 0x3 PUSH1 0x0 DUP7 DUP2 MSTORE PUSH1 0x20 ADD SWAP1 DUP2 MSTORE PUSH1 0x20 ADD PUSH1 0x0 KECCAK256 PUSH1 0x0 DUP6 DUP2 MSTORE PUSH1 0x20 ADD SWAP1 DUP2 MSTORE PUSH1 0x20 ADD PUSH1 0x0 KECCAK256 PUSH1 0x0 DUP3 ADD MLOAD DUP2 PUSH1 0x0 ADD SWAP1 DUP2 PUSH2 0xAA6 SWAP2 SWAP1 PUSH2 0x1A11 JUMP JUMPDEST POP PUSH1 0x20 DUP3 ADD MLOAD DUP2 PUSH1 0x1 ADD SWAP1 DUP2 PUSH2 0xABC SWAP2 SWAP1 PUSH2 0x1A11 JUMP JUMPDEST POP SWAP1 POP POP POP POP POP POP POP POP JUMP JUMPDEST PUSH1 0x5 PUSH1 0x20 MSTORE DUP2 PUSH1 0x0 MSTORE PUSH1 0x40 PUSH1 0x0 KECCAK256 PUSH1 0x20 MSTORE DUP1 PUSH1 0x0 MSTORE PUSH1 0x40 PUSH1 0x0 KECCAK256 PUSH1 0x0 SWAP2 POP SWAP2 POP POP DUP1 SLOAD PUSH2 0xAF4 SWAP1 PUSH2 0x1834 JUMP JUMPDEST DUP1 PUSH1 0x1F ADD PUSH1 0x20 DUP1 SWAP2 DIV MUL PUSH1 0x20 ADD PUSH1 0x40 MLOAD SWAP1 DUP2 ADD PUSH1 0x40 MSTORE DUP1 SWAP3 SWAP2 SWAP1 DUP2 DUP2 MSTORE PUSH1 0x20 ADD DUP3 DUP1 SLOAD PUSH2 0xB20 SWAP1 PUSH2 0x1834 JUMP JUMPDEST DUP1 ISZERO PUSH2 0xB6D JUMPI DUP1 PUSH1 0x1F LT PUSH2 0xB42 JUMPI PUSH2 0x100 DUP1 DUP4 SLOAD DIV MUL DUP4 MSTORE SWAP2 PUSH1 0x20 ADD SWAP2 PUSH2 0xB6D JUMP JUMPDEST DUP3 ADD SWAP2 SWAP1 PUSH1 0x0 MSTORE PUSH1 0x20 PUSH1 0x0 KECCAK256 SWAP1 JUMPDEST DUP2 SLOAD DUP2 MSTORE SWAP1 PUSH1 0x1 ADD SWAP1 PUSH1 0x20 ADD DUP1 DUP4 GT PUSH2 0xB50 JUMPI DUP3 SWAP1 SUB PUSH1 0x1F AND DUP3 ADD SWAP2 JUMPDEST POP POP POP POP POP DUP2 JUMP JUMPDEST PUSH1 0x0 DUP3 GT PUSH2 0xBB8 JUMPI PUSH1 0x40 MLOAD PUSH32 0x8C379A000000000000000000000000000000000000000000000000000000000 DUP2 MSTORE PUSH1 0x4 ADD PUSH2 0xBAF SWAP1 PUSH2 0x1779 JUMP JUMPDEST PUSH1 0x40 MLOAD DUP1 SWAP2 SUB SWAP1 REVERT JUMPDEST PUSH1 0x0 DUP2 GT PUSH2 0xBFB JUMPI PUSH1 0x40 MLOAD PUSH32 0x8C379A000000000000000000000000000000000000000000000000000000000 DUP2 MSTORE PUSH1 0x4 ADD PUSH2 0xBF2 SWAP1 PUSH2 0x2064 JUMP JUMPDEST PUSH1 0x40 MLOAD DUP1 SWAP2 SUB SWAP1 REVERT JUMPDEST PUSH1 0x0 DUP4 SWAP1 POP PUSH1 0x2 DUP2 MLOAD GT PUSH2 0xC44 JUMPI PUSH1 0x40 MLOAD PUSH32 0x8C379A000000000000000000000000000000000000000000000000000000000 DUP2 MSTORE PUSH1 0x4 ADD PUSH2 0xC3B SWAP1 PUSH2 0x20F6 JUMP JUMPDEST PUSH1 0x40 MLOAD DUP1 SWAP2 SUB SWAP1 REVERT JUMPDEST PUSH2 0xC4D DUP4 PUSH2 0xD3F JUMP JUMPDEST PUSH2 0xC8C JUMPI PUSH1 0x40 MLOAD PUSH32 0x8C379A000000000000000000000000000000000000000000000000000000000 DUP2 MSTORE PUSH1 0x4 ADD PUSH2 0xC83 SWAP1 PUSH2 0x1D44 JUMP JUMPDEST PUSH1 0x40 MLOAD DUP1 SWAP2 SUB SWAP1 REVERT JUMPDEST PUSH2 0xC96 DUP4 DUP4 PUSH2 0x100F JUMP JUMPDEST ISZERO PUSH2 0xCD6 JUMPI PUSH1 0x40 MLOAD PUSH32 0x8C379A000000000000000000000000000000000000000000000000000000000 DUP2 MSTORE PUSH1 0x4 ADD PUSH2 0xCCD SWAP1 PUSH2 0x2162 JUMP JUMPDEST PUSH1 0x40 MLOAD DUP1 SWAP2 SUB SWAP1 REVERT JUMPDEST DUP4 PUSH1 0x5 PUSH1 0x0 DUP6 DUP2 MSTORE PUSH1 0x20 ADD SWAP1 DUP2 MSTORE PUSH1 0x20 ADD PUSH1 0x0 KECCAK256 PUSH1 0x0 DUP5 DUP2 MSTORE PUSH1 0x20 ADD SWAP1 DUP2 MSTORE PUSH1 0x20 ADD PUSH1 0x0 KECCAK256 SWAP1 DUP2 PUSH2 0xD07 SWAP2 SWAP1 PUSH2 0x1A11 JUMP JUMPDEST POP POP POP POP POP JUMP JUMPDEST PUSH1 0x0 DUP1 PUSH1 0x0 PUSH1 0x1 SWAP1 POP PUSH1 0x0 PUSH1 0x2 SWAP1 POP DUP1 DUP3 PUSH2 0xD29 SWAP2 SWAP1 PUSH2 0x2182 JUMP JUMPDEST SWAP4 POP DUP1 DUP3 PUSH2 0xD37 SWAP2 SWAP1 PUSH2 0x21C4 JUMP JUMPDEST SWAP3 POP POP POP SWAP1 SWAP2 JUMP JUMPDEST PUSH1 0x0 DUP1 PUSH1 0x1 PUSH1 0x0 DUP5 DUP2 MSTORE PUSH1 0x20 ADD SWAP1 DUP2 MSTORE PUSH1 0x20 ADD PUSH1 0x0 KECCAK256 PUSH1 0x0 SWAP1 SLOAD SWAP1 PUSH2 0x100 EXP SWAP1 DIV PUSH20 0xFFFFFFFFFFFFFFFFFFFFFFFFFFFFFFFFFFFFFFFF AND SWAP1 POP PUSH1 0x0 PUSH20 0xFFFFFFFFFFFFFFFFFFFFFFFFFFFFFFFFFFFFFFFF AND DUP2 PUSH20 0xFFFFFFFFFFFFFFFFFFFFFFFFFFFFFFFFFFFFFFFF AND EQ ISZERO SWAP2 POP POP SWAP2 SWAP1 POP JUMP JUMPDEST PUSH1 0x0 DUP1 PUSH1 0x4 PUSH1 0x0 DUP6 DUP2 MSTORE PUSH1 0x20 ADD SWAP1 DUP2 MSTORE PUSH1 0x20 ADD PUSH1 0x0 KECCAK256 PUSH1 0x0 DUP5 DUP2 MSTORE PUSH1 0x20 ADD SWAP1 DUP2 MSTORE PUSH1 0x20 ADD PUSH1 0x0 KECCAK256 DUP1 SLOAD PUSH2 0xDE3 SWAP1 PUSH2 0x1834 JUMP JUMPDEST DUP1 PUSH1 0x1F ADD PUSH1 0x20 DUP1 SWAP2 DIV MUL PUSH1 0x20 ADD PUSH1 0x40 MLOAD SWAP1 DUP2 ADD PUSH1 0x40 MSTORE DUP1 SWAP3 SWAP2 SWAP1 DUP2 DUP2 MSTORE PUSH1 0x20 ADD DUP3 DUP1 SLOAD PUSH2 0xE0F SWAP1 PUSH2 0x1834 JUMP JUMPDEST DUP1 ISZERO PUSH2 0xE5C JUMPI DUP1 PUSH1 0x1F LT PUSH2 0xE31 JUMPI PUSH2 0x100 DUP1 DUP4 SLOAD DIV MUL DUP4 MSTORE SWAP2 PUSH1 0x20 ADD SWAP2 PUSH2 0xE5C JUMP JUMPDEST DUP3 ADD SWAP2 SWAP1 PUSH1 0x0 MSTORE PUSH1 0x20 PUSH1 0x0 KECCAK256 SWAP1 JUMPDEST DUP2 SLOAD DUP2 MSTORE SWAP1 PUSH1 0x1 ADD SWAP1 PUSH1 0x20 ADD DUP1 DUP4 GT PUSH2 0xE3F JUMPI DUP3 SWAP1 SUB PUSH1 0x1F AND DUP3 ADD SWAP2 JUMPDEST POP POP POP POP POP SWAP1 POP PUSH1 0x0 DUP2 MLOAD SUB PUSH2 0xE76 JUMPI PUSH1 0x0 SWAP2 POP POP PUSH2 0xE7C JUMP JUMPDEST PUSH1 0x1 SWAP2 POP POP JUMPDEST SWAP3 SWAP2 POP POP JUMP JUMPDEST PUSH1 0x0 DUP1 PUSH1 0x3 PUSH1 0x0 DUP6 DUP2 MSTORE PUSH1 0x20 ADD SWAP1 DUP2 MSTORE PUSH1 0x20 ADD PUSH1 0x0 KECCAK256 PUSH1 0x0 DUP5 DUP2 MSTORE PUSH1 0x20 ADD SWAP1 DUP2 MSTORE PUSH1 0x20 ADD PUSH1 0x0 KECCAK256 PUSH1 0x40 MLOAD DUP1 PUSH1 0x40 ADD PUSH1 0x40 MSTORE SWAP1 DUP2 PUSH1 0x0 DUP3 ADD DUP1 SLOAD PUSH2 0xEC4 SWAP1 PUSH2 0x1834 JUMP JUMPDEST DUP1 PUSH1 0x1F ADD PUSH1 0x20 DUP1 SWAP2 DIV MUL PUSH1 0x20 ADD PUSH1 0x40 MLOAD SWAP1 DUP2 ADD PUSH1 0x40 MSTORE DUP1 SWAP3 SWAP2 SWAP1 DUP2 DUP2 MSTORE PUSH1 0x20 ADD DUP3 DUP1 SLOAD PUSH2 0xEF0 SWAP1 PUSH2 0x1834 JUMP JUMPDEST DUP1 ISZERO PUSH2 0xF3D JUMPI DUP1 PUSH1 0x1F LT PUSH2 0xF12 JUMPI PUSH2 0x100 DUP1 DUP4 SLOAD DIV MUL DUP4 MSTORE SWAP2 PUSH1 0x20 ADD SWAP2 PUSH2 0xF3D JUMP JUMPDEST DUP3 ADD SWAP2 SWAP1 PUSH1 0x0 MSTORE PUSH1 0x20 PUSH1 0x0 KECCAK256 SWAP1 JUMPDEST DUP2 SLOAD DUP2 MSTORE SWAP1 PUSH1 0x1 ADD SWAP1 PUSH1 0x20 ADD DUP1 DUP4 GT PUSH2 0xF20 JUMPI DUP3 SWAP1 SUB PUSH1 0x1F AND DUP3 ADD SWAP2 JUMPDEST POP POP POP POP POP DUP2 MSTORE PUSH1 0x20 ADD PUSH1 0x1 DUP3 ADD DUP1 SLOAD PUSH2 0xF56 SWAP1 PUSH2 0x1834 JUMP JUMPDEST DUP1 PUSH1 0x1F ADD PUSH1 0x20 DUP1 SWAP2 DIV MUL PUSH1 0x20 ADD PUSH1 0x40 MLOAD SWAP1 DUP2 ADD PUSH1 0x40 MSTORE DUP1 SWAP3 SWAP2 SWAP1 DUP2 DUP2 MSTORE PUSH1 0x20 ADD DUP3 DUP1 SLOAD PUSH2 0xF82 SWAP1 PUSH2 0x1834 JUMP JUMPDEST DUP1 ISZERO PUSH2 0xFCF JUMPI DUP1 PUSH1 0x1F LT PUSH2 0xFA4 JUMPI PUSH2 0x100 DUP1 DUP4 SLOAD DIV MUL DUP4 MSTORE SWAP2 PUSH1 0x20 ADD SWAP2 PUSH2 0xFCF JUMP JUMPDEST DUP3 ADD SWAP2 SWAP1 PUSH1 0x0 MSTORE PUSH1 0x20 PUSH1 0x0 KECCAK256 SWAP1 JUMPDEST DUP2 SLOAD DUP2 MSTORE SWAP1 PUSH1 0x1 ADD SWAP1 PUSH1 0x20 ADD DUP1 DUP4 GT PUSH2 0xFB2 JUMPI DUP3 SWAP1 SUB PUSH1 0x1F AND DUP3 ADD SWAP2 JUMPDEST POP POP POP POP POP DUP2 MSTORE POP POP SWAP1 POP PUSH1 0x0 DUP2 PUSH1 0x0 ADD MLOAD MLOAD EQ DUP1 ISZERO PUSH2 0xFF4 JUMPI POP PUSH1 0x0 DUP2 PUSH1 0x20 ADD MLOAD MLOAD EQ JUMPDEST ISZERO PUSH2 0x1003 JUMPI PUSH1 0x0 SWAP2 POP POP PUSH2 0x1009 JUMP JUMPDEST PUSH1 0x1 SWAP2 POP POP JUMPDEST SWAP3 SWAP2 POP POP JUMP JUMPDEST PUSH1 0x0 DUP1 PUSH1 0x5 PUSH1 0x0 DUP6 DUP2 MSTORE PUSH1 0x20 ADD SWAP1 DUP2 MSTORE PUSH1 0x20 ADD PUSH1 0x0 KECCAK256 PUSH1 0x0 DUP5 DUP2 MSTORE PUSH1 0x20 ADD SWAP1 DUP2 MSTORE PUSH1 0x20 ADD PUSH1 0x0 KECCAK256 DUP1 SLOAD PUSH2 0x1041 SWAP1 PUSH2 0x1834 JUMP JUMPDEST DUP1 PUSH1 0x1F ADD PUSH1 0x20 DUP1 SWAP2 DIV MUL PUSH1 0x20 ADD PUSH1 0x40 MLOAD SWAP1 DUP2 ADD PUSH1 0x40 MSTORE DUP1 SWAP3 SWAP2 SWAP1 DUP2 DUP2 MSTORE PUSH1 0x20 ADD DUP3 DUP1 SLOAD PUSH2 0x106D SWAP1 PUSH2 0x1834 JUMP JUMPDEST DUP1 ISZERO PUSH2 0x10BA JUMPI DUP1 PUSH1 0x1F LT PUSH2 0x108F JUMPI PUSH2 0x100 DUP1 DUP4 SLOAD DIV MUL DUP4 MSTORE SWAP2 PUSH1 0x20 ADD SWAP2 PUSH2 0x10BA JUMP JUMPDEST DUP3 ADD SWAP2 SWAP1 PUSH1 0x0 MSTORE PUSH1 0x20 PUSH1 0x0 KECCAK256 SWAP1 JUMPDEST DUP2 SLOAD DUP2 MSTORE SWAP1 PUSH1 0x1 ADD SWAP1 PUSH1 0x20 ADD DUP1 DUP4 GT PUSH2 0x109D JUMPI DUP3 SWAP1 SUB PUSH1 0x1F AND DUP3 ADD SWAP2 JUMPDEST POP POP POP POP POP SWAP1 POP PUSH1 0x0 DUP2 MLOAD SUB PUSH2 0x10D4 JUMPI PUSH1 0x0 SWAP2 POP POP PUSH2 0x10DA JUMP JUMPDEST PUSH1 0x1 SWAP2 POP POP JUMPDEST SWAP3 SWAP2 POP POP JUMP JUMPDEST PUSH1 0x0 PUSH1 0x40 MLOAD SWAP1 POP SWAP1 JUMP JUMPDEST PUSH1 0x0 DUP1 REVERT JUMPDEST PUSH1 0x0 DUP1 REVERT JUMPDEST PUSH1 0x0 DUP1 REVERT JUMPDEST PUSH1 0x0 DUP1 REVERT JUMPDEST PUSH1 0x0 PUSH1 0x1F NOT PUSH1 0x1F DUP4 ADD AND SWAP1 POP SWAP2 SWAP1 POP JUMP JUMPDEST PUSH32 0x4E487B7100000000000000000000000000000000000000000000000000000000 PUSH1 0x0 MSTORE PUSH1 0x41 PUSH1 0x4 MSTORE PUSH1 0x24 PUSH1 0x0 REVERT JUMPDEST PUSH2 0x1147 DUP3 PUSH2 0x10FE JUMP JUMPDEST DUP2 ADD DUP2 DUP2 LT PUSH8 0xFFFFFFFFFFFFFFFF DUP3 GT OR ISZERO PUSH2 0x1166 JUMPI PUSH2 0x1165 PUSH2 0x110F JUMP JUMPDEST JUMPDEST DUP1 PUSH1 0x40 MSTORE POP POP POP JUMP JUMPDEST PUSH1 0x0 PUSH2 0x1179 PUSH2 0x10E0 JUMP JUMPDEST SWAP1 POP PUSH2 0x1185 DUP3 DUP3 PUSH2 0x113E JUMP JUMPDEST SWAP2 SWAP1 POP JUMP JUMPDEST PUSH1 0x0 PUSH8 0xFFFFFFFFFFFFFFFF DUP3 GT ISZERO PUSH2 0x11A5 JUMPI PUSH2 0x11A4 PUSH2 0x110F JUMP JUMPDEST JUMPDEST PUSH2 0x11AE DUP3 PUSH2 0x10FE JUMP JUMPDEST SWAP1 POP PUSH1 0x20 DUP2 ADD SWAP1 POP SWAP2 SWAP1 POP JUMP JUMPDEST DUP3 DUP2 DUP4 CALLDATACOPY PUSH1 0x0 DUP4 DUP4 ADD MSTORE POP POP POP JUMP JUMPDEST PUSH1 0x0 PUSH2 0x11DD PUSH2 0x11D8 DUP5 PUSH2 0x118A JUMP JUMPDEST PUSH2 0x116F JUMP JUMPDEST SWAP1 POP DUP3 DUP2 MSTORE PUSH1 0x20 DUP2 ADD DUP5 DUP5 DUP5 ADD GT ISZERO PUSH2 0x11F9 JUMPI PUSH2 0x11F8 PUSH2 0x10F9 JUMP JUMPDEST JUMPDEST PUSH2 0x1204 DUP5 DUP3 DUP6 PUSH2 0x11BB JUMP JUMPDEST POP SWAP4 SWAP3 POP POP POP JUMP JUMPDEST PUSH1 0x0 DUP3 PUSH1 0x1F DUP4 ADD SLT PUSH2 0x1221 JUMPI PUSH2 0x1220 PUSH2 0x10F4 JUMP JUMPDEST JUMPDEST DUP2 CALLDATALOAD PUSH2 0x1231 DUP5 DUP3 PUSH1 0x20 DUP7 ADD PUSH2 0x11CA JUMP JUMPDEST SWAP2 POP POP SWAP3 SWAP2 POP POP JUMP JUMPDEST PUSH1 0x0 DUP2 SWAP1 POP SWAP2 SWAP1 POP JUMP JUMPDEST PUSH2 0x124D DUP2 PUSH2 0x123A JUMP JUMPDEST DUP2 EQ PUSH2 0x1258 JUMPI PUSH1 0x0 DUP1 REVERT JUMPDEST POP JUMP JUMPDEST PUSH1 0x0 DUP2 CALLDATALOAD SWAP1 POP PUSH2 0x126A DUP2 PUSH2 0x1244 JUMP JUMPDEST SWAP3 SWAP2 POP POP JUMP JUMPDEST PUSH1 0x0 DUP1 PUSH1 0x40 DUP4 DUP6 SUB SLT ISZERO PUSH2 0x1287 JUMPI PUSH2 0x1286 PUSH2 0x10EA JUMP JUMPDEST JUMPDEST PUSH1 0x0 DUP4 ADD CALLDATALOAD PUSH8 0xFFFFFFFFFFFFFFFF DUP2 GT ISZERO PUSH2 0x12A5 JUMPI PUSH2 0x12A4 PUSH2 0x10EF JUMP JUMPDEST JUMPDEST PUSH2 0x12B1 DUP6 DUP3 DUP7 ADD PUSH2 0x120C JUMP JUMPDEST SWAP3 POP POP PUSH1 0x20 PUSH2 0x12C2 DUP6 DUP3 DUP7 ADD PUSH2 0x125B JUMP JUMPDEST SWAP2 POP POP SWAP3 POP SWAP3 SWAP1 POP JUMP JUMPDEST PUSH1 0x0 PUSH1 0x20 DUP3 DUP5 SUB SLT ISZERO PUSH2 0x12E2 JUMPI PUSH2 0x12E1 PUSH2 0x10EA JUMP JUMPDEST JUMPDEST PUSH1 0x0 PUSH2 0x12F0 DUP5 DUP3 DUP6 ADD PUSH2 0x125B JUMP JUMPDEST SWAP2 POP POP SWAP3 SWAP2 POP POP JUMP JUMPDEST PUSH1 0x0 PUSH20 0xFFFFFFFFFFFFFFFFFFFFFFFFFFFFFFFFFFFFFFFF DUP3 AND SWAP1 POP SWAP2 SWAP1 POP JUMP JUMPDEST PUSH1 0x0 PUSH2 0x1324 DUP3 PUSH2 0x12F9 JUMP JUMPDEST SWAP1 POP SWAP2 SWAP1 POP JUMP JUMPDEST PUSH2 0x1334 DUP2 PUSH2 0x1319 JUMP JUMPDEST DUP3 MSTORE POP POP JUMP JUMPDEST PUSH1 0x0 PUSH1 0x20 DUP3 ADD SWAP1 POP PUSH2 0x134F PUSH1 0x0 DUP4 ADD DUP5 PUSH2 0x132B JUMP JUMPDEST SWAP3 SWAP2 POP POP JUMP JUMPDEST PUSH1 0x0 DUP1 PUSH1 0x0 PUSH1 0x60 DUP5 DUP7 SUB SLT ISZERO PUSH2 0x136E JUMPI PUSH2 0x136D PUSH2 0x10EA JUMP JUMPDEST JUMPDEST PUSH1 0x0 DUP5 ADD CALLDATALOAD PUSH8 0xFFFFFFFFFFFFFFFF DUP2 GT ISZERO PUSH2 0x138C JUMPI PUSH2 0x138B PUSH2 0x10EF JUMP JUMPDEST JUMPDEST PUSH2 0x1398 DUP7 DUP3 DUP8 ADD PUSH2 0x120C JUMP JUMPDEST SWAP4 POP POP PUSH1 0x20 PUSH2 0x13A9 DUP7 DUP3 DUP8 ADD PUSH2 0x125B JUMP JUMPDEST SWAP3 POP POP PUSH1 0x40 PUSH2 0x13BA DUP7 DUP3 DUP8 ADD PUSH2 0x125B JUMP JUMPDEST SWAP2 POP POP SWAP3 POP SWAP3 POP SWAP3 JUMP JUMPDEST PUSH1 0x0 DUP2 MLOAD SWAP1 POP SWAP2 SWAP1 POP JUMP JUMPDEST PUSH1 0x0 DUP3 DUP3 MSTORE PUSH1 0x20 DUP3 ADD SWAP1 POP SWAP3 SWAP2 POP POP JUMP JUMPDEST PUSH1 0x0 DUP2 SWAP1 POP PUSH1 0x20 DUP3 ADD SWAP1 POP SWAP2 SWAP1 POP JUMP JUMPDEST PUSH2 0x13F9 DUP2 PUSH2 0x123A JUMP JUMPDEST DUP3 MSTORE POP POP JUMP JUMPDEST PUSH1 0x0 DUP2 MLOAD SWAP1 POP SWAP2 SWAP1 POP JUMP JUMPDEST PUSH1 0x0 DUP3 DUP3 MSTORE PUSH1 0x20 DUP3 ADD SWAP1 POP SWAP3 SWAP2 POP POP JUMP JUMPDEST PUSH1 0x0 JUMPDEST DUP4 DUP2 LT ISZERO PUSH2 0x1439 JUMPI DUP1 DUP3 ADD MLOAD DUP2 DUP5 ADD MSTORE PUSH1 0x20 DUP2 ADD SWAP1 POP PUSH2 0x141E JUMP JUMPDEST PUSH1 0x0 DUP5 DUP5 ADD MSTORE POP POP POP POP JUMP JUMPDEST PUSH1 0x0 PUSH2 0x1450 DUP3 PUSH2 0x13FF JUMP JUMPDEST PUSH2 0x145A DUP2 DUP6 PUSH2 0x140A JUMP JUMPDEST SWAP4 POP PUSH2 0x146A DUP2 DUP6 PUSH1 0x20 DUP7 ADD PUSH2 0x141B JUMP JUMPDEST PUSH2 0x1473 DUP2 PUSH2 0x10FE JUMP JUMPDEST DUP5 ADD SWAP2 POP POP SWAP3 SWAP2 POP POP JUMP JUMPDEST PUSH1 0x0 PUSH1 0x40 DUP4 ADD PUSH1 0x0 DUP4 ADD MLOAD PUSH2 0x1496 PUSH1 0x0 DUP7 ADD DUP3 PUSH2 0x13F0 JUMP JUMPDEST POP PUSH1 0x20 DUP4 ADD MLOAD DUP5 DUP3 SUB PUSH1 0x20 DUP7 ADD MSTORE PUSH2 0x14AE DUP3 DUP3 PUSH2 0x1445 JUMP JUMPDEST SWAP2 POP POP DUP1 SWAP2 POP POP SWAP3 SWAP2 POP POP JUMP JUMPDEST PUSH1 0x0 PUSH2 0x14C7 DUP4 DUP4 PUSH2 0x147E JUMP JUMPDEST SWAP1 POP SWAP3 SWAP2 POP POP JUMP JUMPDEST PUSH1 0x0 PUSH1 0x20 DUP3 ADD SWAP1 POP SWAP2 SWAP1 POP JUMP JUMPDEST PUSH1 0x0 PUSH2 0x14E7 DUP3 PUSH2 0x13C4 JUMP JUMPDEST PUSH2 0x14F1 DUP2 DUP6 PUSH2 0x13CF JUMP JUMPDEST SWAP4 POP DUP4 PUSH1 0x20 DUP3 MUL DUP6 ADD PUSH2 0x1503 DUP6 PUSH2 0x13E0 JUMP JUMPDEST DUP1 PUSH1 0x0 JUMPDEST DUP6 DUP2 LT ISZERO PUSH2 0x153F JUMPI DUP5 DUP5 SUB DUP10 MSTORE DUP2 MLOAD PUSH2 0x1520 DUP6 DUP3 PUSH2 0x14BB JUMP JUMPDEST SWAP5 POP PUSH2 0x152B DUP4 PUSH2 0x14CF JUMP JUMPDEST SWAP3 POP PUSH1 0x20 DUP11 ADD SWAP10 POP POP PUSH1 0x1 DUP2 ADD SWAP1 POP PUSH2 0x1507 JUMP JUMPDEST POP DUP3 SWAP8 POP DUP8 SWAP6 POP POP POP POP POP POP SWAP3 SWAP2 POP POP JUMP JUMPDEST PUSH1 0x0 PUSH1 0x20 DUP3 ADD SWAP1 POP DUP2 DUP2 SUB PUSH1 0x0 DUP4 ADD MSTORE PUSH2 0x156B DUP2 DUP5 PUSH2 0x14DC JUMP JUMPDEST SWAP1 POP SWAP3 SWAP2 POP POP JUMP JUMPDEST PUSH1 0x0 DUP1 PUSH1 0x40 DUP4 DUP6 SUB SLT ISZERO PUSH2 0x158A JUMPI PUSH2 0x1589 PUSH2 0x10EA JUMP JUMPDEST JUMPDEST PUSH1 0x0 PUSH2 0x1598 DUP6 DUP3 DUP7 ADD PUSH2 0x125B JUMP JUMPDEST SWAP3 POP POP PUSH1 0x20 PUSH2 0x15A9 DUP6 DUP3 DUP7 ADD PUSH2 0x125B JUMP JUMPDEST SWAP2 POP POP SWAP3 POP SWAP3 SWAP1 POP JUMP JUMPDEST PUSH1 0x0 DUP3 DUP3 MSTORE PUSH1 0x20 DUP3 ADD SWAP1 POP SWAP3 SWAP2 POP POP JUMP JUMPDEST PUSH1 0x0 PUSH2 0x15CF DUP3 PUSH2 0x13FF JUMP JUMPDEST PUSH2 0x15D9 DUP2 DUP6 PUSH2 0x15B3 JUMP JUMPDEST SWAP4 POP PUSH2 0x15E9 DUP2 DUP6 PUSH1 0x20 DUP7 ADD PUSH2 0x141B JUMP JUMPDEST PUSH2 0x15F2 DUP2 PUSH2 0x10FE JUMP JUMPDEST DUP5 ADD SWAP2 POP POP SWAP3 SWAP2 POP POP JUMP JUMPDEST PUSH1 0x0 PUSH1 0x20 DUP3 ADD SWAP1 POP DUP2 DUP2 SUB PUSH1 0x0 DUP4 ADD MSTORE PUSH2 0x1617 DUP2 DUP5 PUSH2 0x15C4 JUMP JUMPDEST SWAP1 POP SWAP3 SWAP2 POP POP JUMP JUMPDEST PUSH1 0x0 PUSH1 0x40 DUP3 ADD SWAP1 POP DUP2 DUP2 SUB PUSH1 0x0 DUP4 ADD MSTORE PUSH2 0x1639 DUP2 DUP6 PUSH2 0x15C4 JUMP JUMPDEST SWAP1 POP DUP2 DUP2 SUB PUSH1 0x20 DUP4 ADD MSTORE PUSH2 0x164D DUP2 DUP5 PUSH2 0x15C4 JUMP JUMPDEST SWAP1 POP SWAP4 SWAP3 POP POP POP JUMP JUMPDEST PUSH1 0x0 DUP1 PUSH1 0x0 DUP1 PUSH1 0x80 DUP6 DUP8 SUB SLT ISZERO PUSH2 0x1670 JUMPI PUSH2 0x166F PUSH2 0x10EA JUMP JUMPDEST JUMPDEST PUSH1 0x0 DUP6 ADD CALLDATALOAD PUSH8 0xFFFFFFFFFFFFFFFF DUP2 GT ISZERO PUSH2 0x168E JUMPI PUSH2 0x168D PUSH2 0x10EF JUMP JUMPDEST JUMPDEST PUSH2 0x169A DUP8 DUP3 DUP9 ADD PUSH2 0x120C JUMP JUMPDEST SWAP5 POP POP PUSH1 0x20 DUP6 ADD CALLDATALOAD PUSH8 0xFFFFFFFFFFFFFFFF DUP2 GT ISZERO PUSH2 0x16BB JUMPI PUSH2 0x16BA PUSH2 0x10EF JUMP JUMPDEST JUMPDEST PUSH2 0x16C7 DUP8 DUP3 DUP9 ADD PUSH2 0x120C JUMP JUMPDEST SWAP4 POP POP PUSH1 0x40 PUSH2 0x16D8 DUP8 DUP3 DUP9 ADD PUSH2 0x125B JUMP JUMPDEST SWAP3 POP POP PUSH1 0x60 PUSH2 0x16E9 DUP8 DUP3 DUP9 ADD PUSH2 0x125B JUMP JUMPDEST SWAP2 POP POP SWAP3 SWAP6 SWAP2 SWAP5 POP SWAP3 POP JUMP JUMPDEST PUSH2 0x16FE DUP2 PUSH2 0x123A JUMP JUMPDEST DUP3 MSTORE POP POP JUMP JUMPDEST PUSH1 0x0 PUSH1 0x40 DUP3 ADD SWAP1 POP PUSH2 0x1719 PUSH1 0x0 DUP4 ADD DUP6 PUSH2 0x16F5 JUMP JUMPDEST PUSH2 0x1726 PUSH1 0x20 DUP4 ADD DUP5 PUSH2 0x16F5 JUMP JUMPDEST SWAP4 SWAP3 POP POP POP JUMP JUMPDEST PUSH32 0x4944206D75737420626520626967676572207468616E20300000000000000000 PUSH1 0x0 DUP3 ADD MSTORE POP JUMP JUMPDEST PUSH1 0x0 PUSH2 0x1763 PUSH1 0x18 DUP4 PUSH2 0x15B3 JUMP JUMPDEST SWAP2 POP PUSH2 0x176E DUP3 PUSH2 0x172D JUMP JUMPDEST PUSH1 0x20 DUP3 ADD SWAP1 POP SWAP2 SWAP1 POP JUMP JUMPDEST PUSH1 0x0 PUSH1 0x20 DUP3 ADD SWAP1 POP DUP2 DUP2 SUB PUSH1 0x0 DUP4 ADD MSTORE PUSH2 0x1792 DUP2 PUSH2 0x1756 JUMP JUMPDEST SWAP1 POP SWAP2 SWAP1 POP JUMP JUMPDEST PUSH32 0x4E616D65206D7573742068617665206174206C65617374203220636861727300 PUSH1 0x0 DUP3 ADD MSTORE POP JUMP JUMPDEST PUSH1 0x0 PUSH2 0x17CF PUSH1 0x1F DUP4 PUSH2 0x15B3 JUMP JUMPDEST SWAP2 POP PUSH2 0x17DA DUP3 PUSH2 0x1799 JUMP JUMPDEST PUSH1 0x20 DUP3 ADD SWAP1 POP SWAP2 SWAP1 POP JUMP JUMPDEST PUSH1 0x0 PUSH1 0x20 DUP3 ADD SWAP1 POP DUP2 DUP2 SUB PUSH1 0x0 DUP4 ADD MSTORE PUSH2 0x17FE DUP2 PUSH2 0x17C2 JUMP JUMPDEST SWAP1 POP SWAP2 SWAP1 POP JUMP JUMPDEST PUSH32 0x4E487B7100000000000000000000000000000000000000000000000000000000 PUSH1 0x0 MSTORE PUSH1 0x22 PUSH1 0x4 MSTORE PUSH1 0x24 PUSH1 0x0 REVERT JUMPDEST PUSH1 0x0 PUSH1 0x2 DUP3 DIV SWAP1 POP PUSH1 0x1 DUP3 AND DUP1 PUSH2 0x184C JUMPI PUSH1 0x7F DUP3 AND SWAP2 POP JUMPDEST PUSH1 0x20 DUP3 LT DUP2 SUB PUSH2 0x185F JUMPI PUSH2 0x185E PUSH2 0x1805 JUMP JUMPDEST JUMPDEST POP SWAP2 SWAP1 POP JUMP JUMPDEST PUSH1 0x0 DUP2 SWAP1 POP DUP2 PUSH1 0x0 MSTORE PUSH1 0x20 PUSH1 0x0 KECCAK256 SWAP1 POP SWAP2 SWAP1 POP JUMP JUMPDEST PUSH1 0x0 PUSH1 0x20 PUSH1 0x1F DUP4 ADD DIV SWAP1 POP SWAP2 SWAP1 POP JUMP JUMPDEST PUSH1 0x0 DUP3 DUP3 SHL SWAP1 POP SWAP3 SWAP2 POP POP JUMP JUMPDEST PUSH1 0x0 PUSH1 0x8 DUP4 MUL PUSH2 0x18C7 PUSH32 0xFFFFFFFFFFFFFFFFFFFFFFFFFFFFFFFFFFFFFFFFFFFFFFFFFFFFFFFFFFFFFFFF DUP3 PUSH2 0x188A JUMP JUMPDEST PUSH2 0x18D1 DUP7 DUP4 PUSH2 0x188A JUMP JUMPDEST SWAP6 POP DUP1 NOT DUP5 AND SWAP4 POP DUP1 DUP7 AND DUP5 OR SWAP3 POP POP POP SWAP4 SWAP3 POP POP POP JUMP JUMPDEST PUSH1 0x0 DUP2 SWAP1 POP SWAP2 SWAP1 POP JUMP JUMPDEST PUSH1 0x0 PUSH2 0x190E PUSH2 0x1909 PUSH2 0x1904 DUP5 PUSH2 0x123A JUMP JUMPDEST PUSH2 0x18E9 JUMP JUMPDEST PUSH2 0x123A JUMP JUMPDEST SWAP1 POP SWAP2 SWAP1 POP JUMP JUMPDEST PUSH1 0x0 DUP2 SWAP1 POP SWAP2 SWAP1 POP JUMP JUMPDEST PUSH2 0x1928 DUP4 PUSH2 0x18F3 JUMP JUMPDEST PUSH2 0x193C PUSH2 0x1934 DUP3 PUSH2 0x1915 JUMP JUMPDEST DUP5 DUP5 SLOAD PUSH2 0x1897 JUMP JUMPDEST DUP3 SSTORE POP POP POP POP JUMP JUMPDEST PUSH1 0x0 SWAP1 JUMP JUMPDEST PUSH2 0x1951 PUSH2 0x1944 JUMP JUMPDEST PUSH2 0x195C DUP2 DUP5 DUP5 PUSH2 0x191F JUMP JUMPDEST POP POP POP JUMP JUMPDEST JUMPDEST DUP2 DUP2 LT ISZERO PUSH2 0x1980 JUMPI PUSH2 0x1975 PUSH1 0x0 DUP3 PUSH2 0x1949 JUMP JUMPDEST PUSH1 0x1 DUP2 ADD SWAP1 POP PUSH2 0x1962 JUMP JUMPDEST POP POP JUMP JUMPDEST PUSH1 0x1F DUP3 GT ISZERO PUSH2 0x19C5 JUMPI PUSH2 0x1996 DUP2 PUSH2 0x1865 JUMP JUMPDEST PUSH2 0x199F DUP5 PUSH2 0x187A JUMP JUMPDEST DUP2 ADD PUSH1 0x20 DUP6 LT ISZERO PUSH2 0x19AE JUMPI DUP2 SWAP1 POP JUMPDEST PUSH2 0x19C2 PUSH2 0x19BA DUP6 PUSH2 0x187A JUMP JUMPDEST DUP4 ADD DUP3 PUSH2 0x1961 JUMP JUMPDEST POP POP JUMPDEST POP POP POP JUMP JUMPDEST PUSH1 0x0 DUP3 DUP3 SHR SWAP1 POP SWAP3 SWAP2 POP POP JUMP JUMPDEST PUSH1 0x0 PUSH2 0x19E8 PUSH1 0x0 NOT DUP5 PUSH1 0x8 MUL PUSH2 0x19CA JUMP JUMPDEST NOT DUP1 DUP4 AND SWAP2 POP POP SWAP3 SWAP2 POP POP JUMP JUMPDEST PUSH1 0x0 PUSH2 0x1A01 DUP4 DUP4 PUSH2 0x19D7 JUMP JUMPDEST SWAP2 POP DUP3 PUSH1 0x2 MUL DUP3 OR SWAP1 POP SWAP3 SWAP2 POP POP JUMP JUMPDEST PUSH2 0x1A1A DUP3 PUSH2 0x13FF JUMP JUMPDEST PUSH8 0xFFFFFFFFFFFFFFFF DUP2 GT ISZERO PUSH2 0x1A33 JUMPI PUSH2 0x1A32 PUSH2 0x110F JUMP JUMPDEST JUMPDEST PUSH2 0x1A3D DUP3 SLOAD PUSH2 0x1834 JUMP JUMPDEST PUSH2 0x1A48 DUP3 DUP3 DUP6 PUSH2 0x1984 JUMP JUMPDEST PUSH1 0x0 PUSH1 0x20 SWAP1 POP PUSH1 0x1F DUP4 GT PUSH1 0x1 DUP2 EQ PUSH2 0x1A7B JUMPI PUSH1 0x0 DUP5 ISZERO PUSH2 0x1A69 JUMPI DUP3 DUP8 ADD MLOAD SWAP1 POP JUMPDEST PUSH2 0x1A73 DUP6 DUP3 PUSH2 0x19F5 JUMP JUMPDEST DUP7 SSTORE POP PUSH2 0x1ADB JUMP JUMPDEST PUSH1 0x1F NOT DUP5 AND PUSH2 0x1A89 DUP7 PUSH2 0x1865 JUMP JUMPDEST PUSH1 0x0 JUMPDEST DUP3 DUP2 LT ISZERO PUSH2 0x1AB1 JUMPI DUP5 DUP10 ADD MLOAD DUP3 SSTORE PUSH1 0x1 DUP3 ADD SWAP2 POP PUSH1 0x20 DUP6 ADD SWAP5 POP PUSH1 0x20 DUP2 ADD SWAP1 POP PUSH2 0x1A8C JUMP JUMPDEST DUP7 DUP4 LT ISZERO PUSH2 0x1ACE JUMPI DUP5 DUP10 ADD MLOAD PUSH2 0x1ACA PUSH1 0x1F DUP10 AND DUP3 PUSH2 0x19D7 JUMP JUMPDEST DUP4 SSTORE POP JUMPDEST PUSH1 0x1 PUSH1 0x2 DUP9 MUL ADD DUP9 SSTORE POP POP POP JUMPDEST POP POP POP POP POP POP JUMP JUMPDEST PUSH32 0x4E487B7100000000000000000000000000000000000000000000000000000000 PUSH1 0x0 MSTORE PUSH1 0x11 PUSH1 0x4 MSTORE PUSH1 0x24 PUSH1 0x0 REVERT JUMPDEST PUSH1 0x0 PUSH2 0x1B1D DUP3 PUSH2 0x123A JUMP JUMPDEST SWAP2 POP PUSH32 0xFFFFFFFFFFFFFFFFFFFFFFFFFFFFFFFFFFFFFFFFFFFFFFFFFFFFFFFFFFFFFFFF DUP3 SUB PUSH2 0x1B4F JUMPI PUSH2 0x1B4E PUSH2 0x1AE3 JUMP JUMPDEST JUMPDEST PUSH1 0x1 DUP3 ADD SWAP1 POP SWAP2 SWAP1 POP JUMP JUMPDEST PUSH32 0x4E657720706F6B656D6F6E206372656174656400000000000000000000000000 PUSH1 0x0 DUP3 ADD MSTORE POP JUMP JUMPDEST PUSH1 0x0 PUSH2 0x1B90 PUSH1 0x13 DUP4 PUSH2 0x15B3 JUMP JUMPDEST SWAP2 POP PUSH2 0x1B9B DUP3 PUSH2 0x1B5A JUMP JUMPDEST PUSH1 0x20 DUP3 ADD SWAP1 POP SWAP2 SWAP1 POP JUMP JUMPDEST PUSH1 0x0 PUSH1 0x40 DUP3 ADD SWAP1 POP PUSH2 0x1BBB PUSH1 0x0 DUP4 ADD DUP5 PUSH2 0x16F5 JUMP JUMPDEST DUP2 DUP2 SUB PUSH1 0x20 DUP4 ADD MSTORE PUSH2 0x1BCC DUP2 PUSH2 0x1B83 JUMP JUMPDEST SWAP1 POP SWAP3 SWAP2 POP POP JUMP JUMPDEST PUSH32 0x54797065206E756D626572206D75737420626520626967676572207468616E20 PUSH1 0x0 DUP3 ADD MSTORE PUSH32 0x3000000000000000000000000000000000000000000000000000000000000000 PUSH1 0x20 DUP3 ADD MSTORE POP JUMP JUMPDEST PUSH1 0x0 PUSH2 0x1C30 PUSH1 0x21 DUP4 PUSH2 0x15B3 JUMP JUMPDEST SWAP2 POP PUSH2 0x1C3B DUP3 PUSH2 0x1BD4 JUMP JUMPDEST PUSH1 0x40 DUP3 ADD SWAP1 POP SWAP2 SWAP1 POP JUMP JUMPDEST PUSH1 0x0 PUSH1 0x20 DUP3 ADD SWAP1 POP DUP2 DUP2 SUB PUSH1 0x0 DUP4 ADD MSTORE PUSH2 0x1C5F DUP2 PUSH2 0x1C23 JUMP JUMPDEST SWAP1 POP SWAP2 SWAP1 POP JUMP JUMPDEST PUSH32 0x496E70757420612076616C69642074797065206E616D652C206174206C656173 PUSH1 0x0 DUP3 ADD MSTORE PUSH32 0x7420322063686172730000000000000000000000000000000000000000000000 PUSH1 0x20 DUP3 ADD MSTORE POP JUMP JUMPDEST PUSH1 0x0 PUSH2 0x1CC2 PUSH1 0x29 DUP4 PUSH2 0x15B3 JUMP JUMPDEST SWAP2 POP PUSH2 0x1CCD DUP3 PUSH2 0x1C66 JUMP JUMPDEST PUSH1 0x40 DUP3 ADD SWAP1 POP SWAP2 SWAP1 POP JUMP JUMPDEST PUSH1 0x0 PUSH1 0x20 DUP3 ADD SWAP1 POP DUP2 DUP2 SUB PUSH1 0x0 DUP4 ADD MSTORE PUSH2 0x1CF1 DUP2 PUSH2 0x1CB5 JUMP JUMPDEST SWAP1 POP SWAP2 SWAP1 POP JUMP JUMPDEST PUSH32 0x496420646F6573206E6F74206578697374000000000000000000000000000000 PUSH1 0x0 DUP3 ADD MSTORE POP JUMP JUMPDEST PUSH1 0x0 PUSH2 0x1D2E PUSH1 0x11 DUP4 PUSH2 0x15B3 JUMP JUMPDEST SWAP2 POP PUSH2 0x1D39 DUP3 PUSH2 0x1CF8 JUMP JUMPDEST PUSH1 0x20 DUP3 ADD SWAP1 POP SWAP2 SWAP1 POP JUMP JUMPDEST PUSH1 0x0 PUSH1 0x20 DUP3 ADD SWAP1 POP DUP2 DUP2 SUB PUSH1 0x0 DUP4 ADD MSTORE PUSH2 0x1D5D DUP2 PUSH2 0x1D21 JUMP JUMPDEST SWAP1 POP SWAP2 SWAP1 POP JUMP JUMPDEST PUSH32 0x5468697320747970652065786973747320616C72656164790000000000000000 PUSH1 0x0 DUP3 ADD MSTORE POP JUMP JUMPDEST PUSH1 0x0 PUSH2 0x1D9A PUSH1 0x18 DUP4 PUSH2 0x15B3 JUMP JUMPDEST SWAP2 POP PUSH2 0x1DA5 DUP3 PUSH2 0x1D64 JUMP JUMPDEST PUSH1 0x20 DUP3 ADD SWAP1 POP SWAP2 SWAP1 POP JUMP JUMPDEST PUSH1 0x0 PUSH1 0x20 DUP3 ADD SWAP1 POP DUP2 DUP2 SUB PUSH1 0x0 DUP4 ADD MSTORE PUSH2 0x1DC9 DUP2 PUSH2 0x1D8D JUMP JUMPDEST SWAP1 POP SWAP2 SWAP1 POP JUMP JUMPDEST PUSH32 0x536B696C6C206E756D626572206D75737420626520626967676572207468616E PUSH1 0x0 DUP3 ADD MSTORE PUSH32 0x2030000000000000000000000000000000000000000000000000000000000000 PUSH1 0x20 DUP3 ADD MSTORE POP JUMP JUMPDEST PUSH1 0x0 PUSH2 0x1E2C PUSH1 0x22 DUP4 PUSH2 0x15B3 JUMP JUMPDEST SWAP2 POP PUSH2 0x1E37 DUP3 PUSH2 0x1DD0 JUMP JUMPDEST PUSH1 0x40 DUP3 ADD SWAP1 POP SWAP2 SWAP1 POP JUMP JUMPDEST PUSH1 0x0 PUSH1 0x20 DUP3 ADD SWAP1 POP DUP2 DUP2 SUB PUSH1 0x0 DUP4 ADD MSTORE PUSH2 0x1E5B DUP2 PUSH2 0x1E1F JUMP JUMPDEST SWAP1 POP SWAP2 SWAP1 POP JUMP JUMPDEST PUSH32 0x496E70757420612076616C696420736B696C6C206E616D652C206174206C6561 PUSH1 0x0 DUP3 ADD MSTORE PUSH32 0x7374203220636861727300000000000000000000000000000000000000000000 PUSH1 0x20 DUP3 ADD MSTORE POP JUMP JUMPDEST PUSH1 0x0 PUSH2 0x1EBE PUSH1 0x2A DUP4 PUSH2 0x15B3 JUMP JUMPDEST SWAP2 POP PUSH2 0x1EC9 DUP3 PUSH2 0x1E62 JUMP JUMPDEST PUSH1 0x40 DUP3 ADD SWAP1 POP SWAP2 SWAP1 POP JUMP JUMPDEST PUSH1 0x0 PUSH1 0x20 DUP3 ADD SWAP1 POP DUP2 DUP2 SUB PUSH1 0x0 DUP4 ADD MSTORE PUSH2 0x1EED DUP2 PUSH2 0x1EB1 JUMP JUMPDEST SWAP1 POP SWAP2 SWAP1 POP JUMP JUMPDEST PUSH32 0x496E70757420612076616C696420736B696C6C206465736372697074696F6E2C PUSH1 0x0 DUP3 ADD MSTORE PUSH32 0x206174206C656173742031302063686172730000000000000000000000000000 PUSH1 0x20 DUP3 ADD MSTORE POP JUMP JUMPDEST PUSH1 0x0 PUSH2 0x1F50 PUSH1 0x32 DUP4 PUSH2 0x15B3 JUMP JUMPDEST SWAP2 POP PUSH2 0x1F5B DUP3 PUSH2 0x1EF4 JUMP JUMPDEST PUSH1 0x40 DUP3 ADD SWAP1 POP SWAP2 SWAP1 POP JUMP JUMPDEST PUSH1 0x0 PUSH1 0x20 DUP3 ADD SWAP1 POP DUP2 DUP2 SUB PUSH1 0x0 DUP4 ADD MSTORE PUSH2 0x1F7F DUP2 PUSH2 0x1F43 JUMP JUMPDEST SWAP1 POP SWAP2 SWAP1 POP JUMP JUMPDEST PUSH32 0x5468697320736B696C6C2065786973747320616C726561647900000000000000 PUSH1 0x0 DUP3 ADD MSTORE POP JUMP JUMPDEST PUSH1 0x0 PUSH2 0x1FBC PUSH1 0x19 DUP4 PUSH2 0x15B3 JUMP JUMPDEST SWAP2 POP PUSH2 0x1FC7 DUP3 PUSH2 0x1F86 JUMP JUMPDEST PUSH1 0x20 DUP3 ADD SWAP1 POP SWAP2 SWAP1 POP JUMP JUMPDEST PUSH1 0x0 PUSH1 0x20 DUP3 ADD SWAP1 POP DUP2 DUP2 SUB PUSH1 0x0 DUP4 ADD MSTORE PUSH2 0x1FEB DUP2 PUSH2 0x1FAF JUMP JUMPDEST SWAP1 POP SWAP2 SWAP1 POP JUMP JUMPDEST PUSH32 0x5765616B6E657373206E756D626572206D757374206265206269676765722074 PUSH1 0x0 DUP3 ADD MSTORE PUSH32 0x68616E2030000000000000000000000000000000000000000000000000000000 PUSH1 0x20 DUP3 ADD MSTORE POP JUMP JUMPDEST PUSH1 0x0 PUSH2 0x204E PUSH1 0x25 DUP4 PUSH2 0x15B3 JUMP JUMPDEST SWAP2 POP PUSH2 0x2059 DUP3 PUSH2 0x1FF2 JUMP JUMPDEST PUSH1 0x40 DUP3 ADD SWAP1 POP SWAP2 SWAP1 POP JUMP JUMPDEST PUSH1 0x0 PUSH1 0x20 DUP3 ADD SWAP1 POP DUP2 DUP2 SUB PUSH1 0x0 DUP4 ADD MSTORE PUSH2 0x207D DUP2 PUSH2 0x2041 JUMP JUMPDEST SWAP1 POP SWAP2 SWAP1 POP JUMP JUMPDEST PUSH32 0x496E70757420612076616C6964207765616B6E657373206E616D652C20617420 PUSH1 0x0 DUP3 ADD MSTORE PUSH32 0x6C65617374203220636861727300000000000000000000000000000000000000 PUSH1 0x20 DUP3 ADD MSTORE POP JUMP JUMPDEST PUSH1 0x0 PUSH2 0x20E0 PUSH1 0x2D DUP4 PUSH2 0x15B3 JUMP JUMPDEST SWAP2 POP PUSH2 0x20EB DUP3 PUSH2 0x2084 JUMP JUMPDEST PUSH1 0x40 DUP3 ADD SWAP1 POP SWAP2 SWAP1 POP JUMP JUMPDEST PUSH1 0x0 PUSH1 0x20 DUP3 ADD SWAP1 POP DUP2 DUP2 SUB PUSH1 0x0 DUP4 ADD MSTORE PUSH2 0x210F DUP2 PUSH2 0x20D3 JUMP JUMPDEST SWAP1 POP SWAP2 SWAP1 POP JUMP JUMPDEST PUSH32 0x54686973207765616B6E6573732065786973747320616C726561647900000000 PUSH1 0x0 DUP3 ADD MSTORE POP JUMP JUMPDEST PUSH1 0x0 PUSH2 0x214C PUSH1 0x1C DUP4 PUSH2 0x15B3 JUMP JUMPDEST SWAP2 POP PUSH2 0x2157 DUP3 PUSH2 0x2116 JUMP JUMPDEST PUSH1 0x20 DUP3 ADD SWAP1 POP SWAP2 SWAP1 POP JUMP JUMPDEST PUSH1 0x0 PUSH1 0x20 DUP3 ADD SWAP1 POP DUP2 DUP2 SUB PUSH1 0x0 DUP4 ADD MSTORE PUSH2 0x217B DUP2 PUSH2 0x213F JUMP JUMPDEST SWAP1 POP SWAP2 SWAP1 POP JUMP JUMPDEST PUSH1 0x0 PUSH2 0x218D DUP3 PUSH2 0x123A JUMP JUMPDEST SWAP2 POP PUSH2 0x2198 DUP4 PUSH2 0x123A JUMP JUMPDEST SWAP3 POP DUP3 DUP3 MUL PUSH2 0x21A6 DUP2 PUSH2 0x123A JUMP JUMPDEST SWAP2 POP DUP3 DUP3 DIV DUP5 EQ DUP4 ISZERO OR PUSH2 0x21BD JUMPI PUSH2 0x21BC PUSH2 0x1AE3 JUMP JUMPDEST JUMPDEST POP SWAP3 SWAP2 POP POP JUMP JUMPDEST PUSH1 0x0 PUSH2 0x21CF DUP3 PUSH2 0x123A JUMP JUMPDEST SWAP2 POP PUSH2 0x21DA DUP4 PUSH2 0x123A JUMP JUMPDEST SWAP3 POP DUP3 DUP3 ADD SWAP1 POP DUP1 DUP3 GT ISZERO PUSH2 0x21F2 JUMPI PUSH2 0x21F1 PUSH2 0x1AE3 JUMP JUMPDEST JUMPDEST SWAP3 SWAP2 POP POP JUMP INVALID LOG2 PUSH5 0x6970667358 0x22 SLT KECCAK256 RETURNDATASIZE SHL 0xDB 0xA5 DUP13 0xDF 0x23 PUSH8 0xB737A2983DFF29A5 SWAP5 0x21 0xD7 0xCE 0xB5 MULMOD DUP8 0xF8 PUSH22 0xB6901AAB8DEDD964736F6C6343000812003300000000 "},"methodIdentifiers":{"addSkill(string,string,uint256,uint256)":"9d8cb635","addType(string,uint256,uint256)":"36fd33b9","addWeakness(string,uint256,uint256)":"cd051a6a","createPokemon(string,uint256)":"0a3bd50b","getAllPokemons()":"5e916790","getResult()":"de292789","pokemonSkills(uint256,uint256)":"93093678","pokemonToOwner(uint256)":"2f7467b3","pokemonTypes(uint256,uint256)":"89d9312c","pokemonWeaknesses(uint256,uint256)":"b827de19"}}}}}