{
  "_format": "hh-sol-artifact-1",
  "contractName": "PokemonFactory",
  "sourceName": "contracts/PokemonFactory.sol",
  "abi": [
    {
      "anonymous": false,
      "inputs": [
        {
          "indexed": true,
          "internalType": "address",
          "name": "_from",
          "type": "address"
        },
        {
          "indexed": false,
          "internalType": "uint256",
          "name": "_id",
          "type": "uint256"
        },
        {
          "indexed": false,
          "internalType": "string",
          "name": "_value",
          "type": "string"
        }
      ],
      "name": "CreatedPokemon",
      "type": "event"
    },
    {
      "inputs": [
        {
          "internalType": "string",
          "name": "_skillName",
          "type": "string"
        },
        {
          "internalType": "string",
          "name": "_skillDesc",
          "type": "string"
        },
        {
          "internalType": "uint256",
          "name": "_id",
          "type": "uint256"
        },
        {
          "internalType": "uint256",
          "name": "_skillnumber",
          "type": "uint256"
        }
      ],
      "name": "addSkill",
      "outputs": [],
      "stateMutability": "nonpayable",
      "type": "function"
    },
    {
      "inputs": [
        {
          "internalType": "string",
          "name": "_type",
          "type": "string"
        },
        {
          "internalType": "uint256",
          "name": "_id",
          "type": "uint256"
        },
        {
          "internalType": "uint256",
          "name": "_typeNumber",
          "type": "uint256"
        }
      ],
      "name": "addType",
      "outputs": [],
      "stateMutability": "nonpayable",
      "type": "function"
    },
    {
      "inputs": [
        {
          "internalType": "string",
          "name": "_weakness",
          "type": "string"
        },
        {
          "internalType": "uint256",
          "name": "_id",
          "type": "uint256"
        },
        {
          "internalType": "uint256",
          "name": "_weakNumber",
          "type": "uint256"
        }
      ],
      "name": "addWeakness",
      "outputs": [],
      "stateMutability": "nonpayable",
      "type": "function"
    },
    {
      "inputs": [
        {
          "internalType": "string",
          "name": "_name",
          "type": "string"
        },
        {
          "internalType": "uint256",
          "name": "_id",
          "type": "uint256"
        }
      ],
      "name": "createPokemon",
      "outputs": [],
      "stateMutability": "nonpayable",
      "type": "function"
    },
    {
      "inputs": [],
      "name": "getAllPokemons",
      "outputs": [
        {
          "components": [
            {
              "internalType": "uint256",
              "name": "id",
              "type": "uint256"
            },
            {
              "internalType": "string",
              "name": "name",
              "type": "string"
            }
          ],
          "internalType": "struct PokemonFactory.Pokemon[]",
          "name": "",
          "type": "tuple[]"
        }
      ],
      "stateMutability": "view",
      "type": "function"
    },
    {
      "inputs": [],
      "name": "getResult",
      "outputs": [
        {
          "internalType": "uint256",
          "name": "product",
          "type": "uint256"
        },
        {
          "internalType": "uint256",
          "name": "sum",
          "type": "uint256"
        }
      ],
      "stateMutability": "pure",
      "type": "function"
    },
    {
      "inputs": [
        {
          "internalType": "uint256",
          "name": "",
          "type": "uint256"
        },
        {
          "internalType": "uint256",
          "name": "",
          "type": "uint256"
        }
      ],
      "name": "pokemonSkills",
      "outputs": [
        {
          "internalType": "string",
          "name": "Name",
          "type": "string"
        },
        {
          "internalType": "string",
          "name": "Description",
          "type": "string"
        }
      ],
      "stateMutability": "view",
      "type": "function"
    },
    {
      "inputs": [
        {
          "internalType": "uint256",
          "name": "",
          "type": "uint256"
        }
      ],
      "name": "pokemonToOwner",
      "outputs": [
        {
          "internalType": "address",
          "name": "",
          "type": "address"
        }
      ],
      "stateMutability": "view",
      "type": "function"
    },
    {
      "inputs": [
        {
          "internalType": "uint256",
          "name": "",
          "type": "uint256"
        },
        {
          "internalType": "uint256",
          "name": "",
          "type": "uint256"
        }
      ],
      "name": "pokemonTypes",
      "outputs": [
        {
          "internalType": "string",
          "name": "",
          "type": "string"
        }
      ],
      "stateMutability": "view",
      "type": "function"
    },
    {
      "inputs": [
        {
          "internalType": "uint256",
          "name": "",
          "type": "uint256"
        },
        {
          "internalType": "uint256",
          "name": "",
          "type": "uint256"
        }
      ],
      "name": "pokemonWeaknesses",
      "outputs": [
        {
          "internalType": "string",
          "name": "",
          "type": "string"
        }
      ],
      "stateMutability": "view",
      "type": "function"
    }
  ],
  "bytecode": "0x608060405234801561001057600080fd5b5061222e806100206000396000f3fe608060405234801561001057600080fd5b506004361061009e5760003560e01c8063930936781161006657806393093678146101595780639d8cb6351461018a578063b827de19146101a6578063cd051a6a146101d6578063de292789146101f25761009e565b80630a3bd50b146100a35780632f7467b3146100bf57806336fd33b9146100ef5780635e9167901461010b57806389d9312c14610129575b600080fd5b6100bd60048036038101906100b89190611270565b610211565b005b6100d960048036038101906100d491906112cc565b6103f9565b6040516100e6919061133a565b60405180910390f35b61010960048036038101906101049190611355565b61042c565b005b6101136105c5565b6040516101209190611551565b60405180910390f35b610143600480360381019061013e9190611573565b6106c0565b60405161015091906115fd565b60405180910390f35b610173600480360381019061016e9190611573565b61076d565b60405161018192919061161f565b60405180910390f35b6101a4600480360381019061019f9190611656565b6108ae565b005b6101c060048036038101906101bb9190611573565b610ac8565b6040516101cd91906115fd565b60405180910390f35b6101f060048036038101906101eb9190611355565b610b75565b005b6101fa610d0e565b604051610208929190611704565b60405180910390f35b60008111610254576040517f08c379a000000000000000000000000000000000000000000000000000000000815260040161024b90611779565b60405180910390fd5b6000829050600281511161029d576040517f08c379a0000000000000000000000000000000000000000000000000000000008152600401610294906117e5565b60405180910390fd5b600060405180604001604052808481526020018581525090806001815401808255809150506001900390600052602060002090600202016000909190919091506000820151816000015560208201518160010190816102fc9190611a11565b505050336001600084815260200190815260200160002060006101000a81548173ffffffffffffffffffffffffffffffffffffffff021916908373ffffffffffffffffffffffffffffffffffffffff160217905550600260003373ffffffffffffffffffffffffffffffffffffffff1673ffffffffffffffffffffffffffffffffffffffff16815260200190815260200160002060008154809291906103a190611b12565b91905055503373ffffffffffffffffffffffffffffffffffffffff167f4703b8523faaced5a5c33cf4d0d29396368e826fa09b85f6a13203d22f8c34d4836040516103ec9190611ba6565b60405180910390a2505050565b60016020528060005260406000206000915054906101000a900473ffffffffffffffffffffffffffffffffffffffff1681565b6000821161046f576040517f08c379a000000000000000000000000000000000000000000000000000000000815260040161046690611779565b60405180910390fd5b600081116104b2576040517f08c379a00000000000000000000000000000000000000000000000000000000081526004016104a990611c46565b60405180910390fd5b600083905060028151116104fb576040517f08c379a00000000000000000000000000000000000000000000000000000000081526004016104f290611cd8565b60405180910390fd5b61050483610d3f565b610543576040517f08c379a000000000000000000000000000000000000000000000000000000000815260040161053a90611d44565b60405180910390fd5b61054d8383610db1565b1561058d576040517f08c379a000000000000000000000000000000000000000000000000000000000815260040161058490611db0565b60405180910390fd5b8360046000858152602001908152602001600020600084815260200190815260200160002090816105be9190611a11565b5050505050565b60606000805480602002602001604051908101604052809291908181526020016000905b828210156106b757838290600052602060002090600202016040518060400160405290816000820154815260200160018201805461062690611834565b80601f016020809104026020016040519081016040528092919081815260200182805461065290611834565b801561069f5780601f106106745761010080835404028352916020019161069f565b820191906000526020600020905b81548152906001019060200180831161068257829003601f168201915b505050505081525050815260200190600101906105e9565b50505050905090565b60046020528160005260406000206020528060005260406000206000915091505080546106ec90611834565b80601f016020809104026020016040519081016040528092919081815260200182805461071890611834565b80156107655780601f1061073a57610100808354040283529160200191610765565b820191906000526020600020905b81548152906001019060200180831161074857829003601f168201915b505050505081565b60036020528160005260406000206020528060005260406000206000915091505080600001805461079d90611834565b80601f01602080910402602001604051908101604052809291908181526020018280546107c990611834565b80156108165780601f106107eb57610100808354040283529160200191610816565b820191906000526020600020905b8154815290600101906020018083116107f957829003601f168201915b50505050509080600101805461082b90611834565b80601f016020809104026020016040519081016040528092919081815260200182805461085790611834565b80156108a45780601f10610879576101008083540402835291602001916108a4565b820191906000526020600020905b81548152906001019060200180831161088757829003601f168201915b5050505050905082565b600082116108f1576040517f08c379a00000000000000000000000000000000000000000000000000000000081526004016108e890611779565b60405180910390fd5b60008111610934576040517f08c379a000000000000000000000000000000000000000000000000000000000815260040161092b90611e42565b60405180910390fd5b6000849050600281511161097d576040517f08c379a000000000000000000000000000000000000000000000000000000000815260040161097490611ed4565b60405180910390fd5b6000849050600a8151116109c6576040517f08c379a00000000000000000000000000000000000000000000000000000000081526004016109bd90611f66565b60405180910390fd5b6109cf84610d3f565b610a0e576040517f08c379a0000000000000000000000000000000000000000000000000000000008152600401610a0590611d44565b60405180910390fd5b610a188484610e82565b15610a58576040517f08c379a0000000000000000000000000000000000000000000000000000000008152600401610a4f90611fd2565b60405180910390fd5b6040518060400160405280878152602001868152506003600086815260200190815260200160002060008581526020019081526020016000206000820151816000019081610aa69190611a11565b506020820151816001019081610abc9190611a11565b50905050505050505050565b6005602052816000526040600020602052806000526040600020600091509150508054610af490611834565b80601f0160208091040260200160405190810160405280929190818152602001828054610b2090611834565b8015610b6d5780601f10610b4257610100808354040283529160200191610b6d565b820191906000526020600020905b815481529060010190602001808311610b5057829003601f168201915b505050505081565b60008211610bb8576040517f08c379a0000000000000000000000000000000000000000000000000000000008152600401610baf90611779565b60405180910390fd5b60008111610bfb576040517f08c379a0000000000000000000000000000000000000000000000000000000008152600401610bf290612064565b60405180910390fd5b60008390506002815111610c44576040517f08c379a0000000000000000000000000000000000000000000000000000000008152600401610c3b906120f6565b60405180910390fd5b610c4d83610d3f565b610c8c576040517f08c379a0000000000000000000000000000000000000000000000000000000008152600401610c8390611d44565b60405180910390fd5b610c96838361100f565b15610cd6576040517f08c379a0000000000000000000000000000000000000000000000000000000008152600401610ccd90612162565b60405180910390fd5b836005600085815260200190815260200160002060008481526020019081526020016000209081610d079190611a11565b5050505050565b6000806000600190506000600290508082610d299190612182565b93508082610d3791906121c4565b925050509091565b6000806001600084815260200190815260200160002060009054906101000a900473ffffffffffffffffffffffffffffffffffffffff169050600073ffffffffffffffffffffffffffffffffffffffff168173ffffffffffffffffffffffffffffffffffffffff161415915050919050565b6000806004600085815260200190815260200160002060008481526020019081526020016000208054610de390611834565b80601f0160208091040260200160405190810160405280929190818152602001828054610e0f90611834565b8015610e5c5780601f10610e3157610100808354040283529160200191610e5c565b820191906000526020600020905b815481529060010190602001808311610e3f57829003601f168201915b505050505090506000815103610e76576000915050610e7c565b60019150505b92915050565b600080600360008581526020019081526020016000206000848152602001908152602001600020604051806040016040529081600082018054610ec490611834565b80601f0160208091040260200160405190810160405280929190818152602001828054610ef090611834565b8015610f3d5780601f10610f1257610100808354040283529160200191610f3d565b820191906000526020600020905b815481529060010190602001808311610f2057829003601f168201915b50505050508152602001600182018054610f5690611834565b80601f0160208091040260200160405190810160405280929190818152602001828054610f8290611834565b8015610fcf5780601f10610fa457610100808354040283529160200191610fcf565b820191906000526020600020905b815481529060010190602001808311610fb257829003601f168201915b50505050508152505090506000816000015151148015610ff457506000816020015151145b15611003576000915050611009565b60019150505b92915050565b600080600560008581526020019081526020016000206000848152602001908152602001600020805461104190611834565b80601f016020809104026020016040519081016040528092919081815260200182805461106d90611834565b80156110ba5780601f1061108f576101008083540402835291602001916110ba565b820191906000526020600020905b81548152906001019060200180831161109d57829003601f168201915b5050505050905060008151036110d45760009150506110da565b60019150505b92915050565b6000604051905090565b600080fd5b600080fd5b600080fd5b600080fd5b6000601f19601f8301169050919050565b7f4e487b7100000000000000000000000000000000000000000000000000000000600052604160045260246000fd5b611147826110fe565b810181811067ffffffffffffffff821117156111665761116561110f565b5b80604052505050565b60006111796110e0565b9050611185828261113e565b919050565b600067ffffffffffffffff8211156111a5576111a461110f565b5b6111ae826110fe565b9050602081019050919050565b82818337600083830152505050565b60006111dd6111d88461118a565b61116f565b9050828152602081018484840111156111f9576111f86110f9565b5b6112048482856111bb565b509392505050565b600082601f830112611221576112206110f4565b5b81356112318482602086016111ca565b91505092915050565b6000819050919050565b61124d8161123a565b811461125857600080fd5b50565b60008135905061126a81611244565b92915050565b60008060408385031215611287576112866110ea565b5b600083013567ffffffffffffffff8111156112a5576112a46110ef565b5b6112b18582860161120c565b92505060206112c28582860161125b565b9150509250929050565b6000602082840312156112e2576112e16110ea565b5b60006112f08482850161125b565b91505092915050565b600073ffffffffffffffffffffffffffffffffffffffff82169050919050565b6000611324826112f9565b9050919050565b61133481611319565b82525050565b600060208201905061134f600083018461132b565b92915050565b60008060006060848603121561136e5761136d6110ea565b5b600084013567ffffffffffffffff81111561138c5761138b6110ef565b5b6113988682870161120c565b93505060206113a98682870161125b565b92505060406113ba8682870161125b565b9150509250925092565b600081519050919050565b600082825260208201905092915050565b6000819050602082019050919050565b6113f98161123a565b82525050565b600081519050919050565b600082825260208201905092915050565b60005b8381101561143957808201518184015260208101905061141e565b60008484015250505050565b6000611450826113ff565b61145a818561140a565b935061146a81856020860161141b565b611473816110fe565b840191505092915050565b600060408301600083015161149660008601826113f0565b50602083015184820360208601526114ae8282611445565b9150508091505092915050565b60006114c7838361147e565b905092915050565b6000602082019050919050565b60006114e7826113c4565b6114f181856113cf565b935083602082028501611503856113e0565b8060005b8581101561153f578484038952815161152085826114bb565b945061152b836114cf565b925060208a01995050600181019050611507565b50829750879550505050505092915050565b6000602082019050818103600083015261156b81846114dc565b905092915050565b6000806040838503121561158a576115896110ea565b5b60006115988582860161125b565b92505060206115a98582860161125b565b9150509250929050565b600082825260208201905092915050565b60006115cf826113ff565b6115d981856115b3565b93506115e981856020860161141b565b6115f2816110fe565b840191505092915050565b6000602082019050818103600083015261161781846115c4565b905092915050565b6000604082019050818103600083015261163981856115c4565b9050818103602083015261164d81846115c4565b90509392505050565b600080600080608085870312156116705761166f6110ea565b5b600085013567ffffffffffffffff81111561168e5761168d6110ef565b5b61169a8782880161120c565b945050602085013567ffffffffffffffff8111156116bb576116ba6110ef565b5b6116c78782880161120c565b93505060406116d88782880161125b565b92505060606116e98782880161125b565b91505092959194509250565b6116fe8161123a565b82525050565b600060408201905061171960008301856116f5565b61172660208301846116f5565b9392505050565b7f4944206d75737420626520626967676572207468616e20300000000000000000600082015250565b60006117636018836115b3565b915061176e8261172d565b602082019050919050565b6000602082019050818103600083015261179281611756565b9050919050565b7f4e616d65206d7573742068617665206174206c65617374203220636861727300600082015250565b60006117cf601f836115b3565b91506117da82611799565b602082019050919050565b600060208201905081810360008301526117fe816117c2565b9050919050565b7f4e487b7100000000000000000000000000000000000000000000000000000000600052602260045260246000fd5b6000600282049050600182168061184c57607f821691505b60208210810361185f5761185e611805565b5b50919050565b60008190508160005260206000209050919050565b60006020601f8301049050919050565b600082821b905092915050565b6000600883026118c77fffffffffffffffffffffffffffffffffffffffffffffffffffffffffffffffff8261188a565b6118d1868361188a565b95508019841693508086168417925050509392505050565b6000819050919050565b600061190e6119096119048461123a565b6118e9565b61123a565b9050919050565b6000819050919050565b611928836118f3565b61193c61193482611915565b848454611897565b825550505050565b600090565b611951611944565b61195c81848461191f565b505050565b5b8181101561198057611975600082611949565b600181019050611962565b5050565b601f8211156119c55761199681611865565b61199f8461187a565b810160208510156119ae578190505b6119c26119ba8561187a565b830182611961565b50505b505050565b600082821c905092915050565b60006119e8600019846008026119ca565b1980831691505092915050565b6000611a0183836119d7565b9150826002028217905092915050565b611a1a826113ff565b67ffffffffffffffff811115611a3357611a3261110f565b5b611a3d8254611834565b611a48828285611984565b600060209050601f831160018114611a7b5760008415611a69578287015190505b611a7385826119f5565b865550611adb565b601f198416611a8986611865565b60005b82811015611ab157848901518255600182019150602085019450602081019050611a8c565b86831015611ace5784890151611aca601f8916826119d7565b8355505b6001600288020188555050505b505050505050565b7f4e487b7100000000000000000000000000000000000000000000000000000000600052601160045260246000fd5b6000611b1d8261123a565b91507fffffffffffffffffffffffffffffffffffffffffffffffffffffffffffffffff8203611b4f57611b4e611ae3565b5b600182019050919050565b7f4e657720706f6b656d6f6e206372656174656400000000000000000000000000600082015250565b6000611b906013836115b3565b9150611b9b82611b5a565b602082019050919050565b6000604082019050611bbb60008301846116f5565b8181036020830152611bcc81611b83565b905092915050565b7f54797065206e756d626572206d75737420626520626967676572207468616e2060008201527f3000000000000000000000000000000000000000000000000000000000000000602082015250565b6000611c306021836115b3565b9150611c3b82611bd4565b604082019050919050565b60006020820190508181036000830152611c5f81611c23565b9050919050565b7f496e70757420612076616c69642074797065206e616d652c206174206c65617360008201527f7420322063686172730000000000000000000000000000000000000000000000602082015250565b6000611cc26029836115b3565b9150611ccd82611c66565b604082019050919050565b60006020820190508181036000830152611cf181611cb5565b9050919050565b7f496420646f6573206e6f74206578697374000000000000000000000000000000600082015250565b6000611d2e6011836115b3565b9150611d3982611cf8565b602082019050919050565b60006020820190508181036000830152611d5d81611d21565b9050919050565b7f5468697320747970652065786973747320616c72656164790000000000000000600082015250565b6000611d9a6018836115b3565b9150611da582611d64565b602082019050919050565b60006020820190508181036000830152611dc981611d8d565b9050919050565b7f536b696c6c206e756d626572206d75737420626520626967676572207468616e60008201527f2030000000000000000000000000000000000000000000000000000000000000602082015250565b6000611e2c6022836115b3565b9150611e3782611dd0565b604082019050919050565b60006020820190508181036000830152611e5b81611e1f565b9050919050565b7f496e70757420612076616c696420736b696c6c206e616d652c206174206c656160008201527f7374203220636861727300000000000000000000000000000000000000000000602082015250565b6000611ebe602a836115b3565b9150611ec982611e62565b604082019050919050565b60006020820190508181036000830152611eed81611eb1565b9050919050565b7f496e70757420612076616c696420736b696c6c206465736372697074696f6e2c60008201527f206174206c656173742031302063686172730000000000000000000000000000602082015250565b6000611f506032836115b3565b9150611f5b82611ef4565b604082019050919050565b60006020820190508181036000830152611f7f81611f43565b9050919050565b7f5468697320736b696c6c2065786973747320616c726561647900000000000000600082015250565b6000611fbc6019836115b3565b9150611fc782611f86565b602082019050919050565b60006020820190508181036000830152611feb81611faf565b9050919050565b7f5765616b6e657373206e756d626572206d75737420626520626967676572207460008201527f68616e2030000000000000000000000000000000000000000000000000000000602082015250565b600061204e6025836115b3565b915061205982611ff2565b604082019050919050565b6000602082019050818103600083015261207d81612041565b9050919050565b7f496e70757420612076616c6964207765616b6e657373206e616d652c2061742060008201527f6c65617374203220636861727300000000000000000000000000000000000000602082015250565b60006120e0602d836115b3565b91506120eb82612084565b604082019050919050565b6000602082019050818103600083015261210f816120d3565b9050919050565b7f54686973207765616b6e6573732065786973747320616c726561647900000000600082015250565b600061214c601c836115b3565b915061215782612116565b602082019050919050565b6000602082019050818103600083015261217b8161213f565b9050919050565b600061218d8261123a565b91506121988361123a565b92508282026121a68161123a565b915082820484148315176121bd576121bc611ae3565b5b5092915050565b60006121cf8261123a565b91506121da8361123a565b92508282019050808211156121f2576121f1611ae3565b5b9291505056fea26469706673582212203d1bdba58cdf2367b737a2983dff29a59421d7ceb50987f875b6901aab8dedd964736f6c63430008120033",
  "linkReferences": {},
  "deployedLinkReferences": {}
}