{
  "_format": "hh-sol-artifact-1",
  "contractName": "PokemonFactory",
  "sourceName": "contracts/PokemonFactory.sol",
  "abi": [
    {
      "anonymous": false,
      "inputs": [
        {
          "indexed": true,
          "internalType": "address",
          "name": "_from",
          "type": "address"
        },
        {
          "indexed": false,
          "internalType": "uint256",
          "name": "_id",
          "type": "uint256"
        },
        {
          "indexed": false,
          "internalType": "string",
          "name": "_value",
          "type": "string"
        }
      ],
      "name": "CreateAlert",
      "type": "event"
    },
    {
      "inputs": [
        {
          "internalType": "string",
          "name": "_name",
          "type": "string"
        },
        {
          "internalType": "uint256",
          "name": "_id",
          "type": "uint256"
        }
      ],
      "name": "createPokemon",
      "outputs": [],
      "stateMutability": "nonpayable",
      "type": "function"
    },
    {
      "inputs": [],
      "name": "getAllPokemons",
      "outputs": [
        {
          "components": [
            {
              "internalType": "uint256",
              "name": "id",
              "type": "uint256"
            },
            {
              "internalType": "string",
              "name": "name",
              "type": "string"
            }
          ],
          "internalType": "struct PokemonFactory.Pokemon[]",
          "name": "",
          "type": "tuple[]"
        }
      ],
      "stateMutability": "view",
      "type": "function"
    },
    {
      "inputs": [],
      "name": "getResult",
      "outputs": [
        {
          "internalType": "uint256",
          "name": "product",
          "type": "uint256"
        },
        {
          "internalType": "uint256",
          "name": "sum",
          "type": "uint256"
        }
      ],
      "stateMutability": "pure",
      "type": "function"
    },
    {
      "inputs": [
        {
          "internalType": "uint256",
          "name": "",
          "type": "uint256"
        }
      ],
      "name": "pokemonToOwner",
      "outputs": [
        {
          "internalType": "address",
          "name": "",
          "type": "address"
        }
      ],
      "stateMutability": "view",
      "type": "function"
    }
  ],
  "bytecode": "0x608060405234801561001057600080fd5b50610c7c806100206000396000f3fe608060405234801561001057600080fd5b506004361061004c5760003560e01c80630a3bd50b146100515780632f7467b31461006d5780635e9167901461009d578063de292789146100bb575b600080fd5b61006b60048036038101906100669190610524565b6100da565b005b61008760048036038101906100829190610580565b610235565b60405161009491906105ee565b60405180910390f35b6100a5610268565b6040516100b29190610796565b60405180910390f35b6100c3610363565b6040516100d19291906107c7565b60405180910390f35b6000604051806040016040528083815260200184815250908060018154018082558091505060019003906000526020600020906002020160009091909190915060008201518160000155602082015181600101908161013991906109fc565b505050336001600083815260200190815260200160002060006101000a81548173ffffffffffffffffffffffffffffffffffffffff021916908373ffffffffffffffffffffffffffffffffffffffff160217905550600260003373ffffffffffffffffffffffffffffffffffffffff1673ffffffffffffffffffffffffffffffffffffffff16815260200190815260200160002060008154809291906101de90610afd565b91905055503373ffffffffffffffffffffffffffffffffffffffff167fb343ce84b03378e83697a5269a6ba0feca7e0eeae962206a36a94a77bafb6521826040516102299190610ba2565b60405180910390a25050565b60016020528060005260406000206000915054906101000a900473ffffffffffffffffffffffffffffffffffffffff1681565b60606000805480602002602001604051908101604052809291908181526020016000905b8282101561035a5783829060005260206000209060020201604051806040016040529081600082015481526020016001820180546102c99061081f565b80601f01602080910402602001604051908101604052809291908181526020018280546102f59061081f565b80156103425780601f1061031757610100808354040283529160200191610342565b820191906000526020600020905b81548152906001019060200180831161032557829003601f168201915b5050505050815250508152602001906001019061028c565b50505050905090565b600080600060019050600060029050808261037e9190610bd0565b9350808261038c9190610c12565b925050509091565b6000604051905090565b600080fd5b600080fd5b600080fd5b600080fd5b6000601f19601f8301169050919050565b7f4e487b7100000000000000000000000000000000000000000000000000000000600052604160045260246000fd5b6103fb826103b2565b810181811067ffffffffffffffff8211171561041a576104196103c3565b5b80604052505050565b600061042d610394565b905061043982826103f2565b919050565b600067ffffffffffffffff821115610459576104586103c3565b5b610462826103b2565b9050602081019050919050565b82818337600083830152505050565b600061049161048c8461043e565b610423565b9050828152602081018484840111156104ad576104ac6103ad565b5b6104b884828561046f565b509392505050565b600082601f8301126104d5576104d46103a8565b5b81356104e584826020860161047e565b91505092915050565b6000819050919050565b610501816104ee565b811461050c57600080fd5b50565b60008135905061051e816104f8565b92915050565b6000806040838503121561053b5761053a61039e565b5b600083013567ffffffffffffffff811115610559576105586103a3565b5b610565858286016104c0565b92505060206105768582860161050f565b9150509250929050565b6000602082840312156105965761059561039e565b5b60006105a48482850161050f565b91505092915050565b600073ffffffffffffffffffffffffffffffffffffffff82169050919050565b60006105d8826105ad565b9050919050565b6105e8816105cd565b82525050565b600060208201905061060360008301846105df565b92915050565b600081519050919050565b600082825260208201905092915050565b6000819050602082019050919050565b61063e816104ee565b82525050565b600081519050919050565b600082825260208201905092915050565b60005b8381101561067e578082015181840152602081019050610663565b60008484015250505050565b600061069582610644565b61069f818561064f565b93506106af818560208601610660565b6106b8816103b2565b840191505092915050565b60006040830160008301516106db6000860182610635565b50602083015184820360208601526106f3828261068a565b9150508091505092915050565b600061070c83836106c3565b905092915050565b6000602082019050919050565b600061072c82610609565b6107368185610614565b93508360208202850161074885610625565b8060005b8581101561078457848403895281516107658582610700565b945061077083610714565b925060208a0199505060018101905061074c565b50829750879550505050505092915050565b600060208201905081810360008301526107b08184610721565b905092915050565b6107c1816104ee565b82525050565b60006040820190506107dc60008301856107b8565b6107e960208301846107b8565b9392505050565b7f4e487b7100000000000000000000000000000000000000000000000000000000600052602260045260246000fd5b6000600282049050600182168061083757607f821691505b60208210810361084a576108496107f0565b5b50919050565b60008190508160005260206000209050919050565b60006020601f8301049050919050565b600082821b905092915050565b6000600883026108b27fffffffffffffffffffffffffffffffffffffffffffffffffffffffffffffffff82610875565b6108bc8683610875565b95508019841693508086168417925050509392505050565b6000819050919050565b60006108f96108f46108ef846104ee565b6108d4565b6104ee565b9050919050565b6000819050919050565b610913836108de565b61092761091f82610900565b848454610882565b825550505050565b600090565b61093c61092f565b61094781848461090a565b505050565b5b8181101561096b57610960600082610934565b60018101905061094d565b5050565b601f8211156109b05761098181610850565b61098a84610865565b81016020851015610999578190505b6109ad6109a585610865565b83018261094c565b50505b505050565b600082821c905092915050565b60006109d3600019846008026109b5565b1980831691505092915050565b60006109ec83836109c2565b9150826002028217905092915050565b610a0582610644565b67ffffffffffffffff811115610a1e57610a1d6103c3565b5b610a28825461081f565b610a3382828561096f565b600060209050601f831160018114610a665760008415610a54578287015190505b610a5e85826109e0565b865550610ac6565b601f198416610a7486610850565b60005b82811015610a9c57848901518255600182019150602085019450602081019050610a77565b86831015610ab95784890151610ab5601f8916826109c2565b8355505b6001600288020188555050505b505050505050565b7f4e487b7100000000000000000000000000000000000000000000000000000000600052601160045260246000fd5b6000610b08826104ee565b91507fffffffffffffffffffffffffffffffffffffffffffffffffffffffffffffffff8203610b3a57610b39610ace565b5b600182019050919050565b600082825260208201905092915050565b7f4e657720706f6b656d6f6e206372656174656400000000000000000000000000600082015250565b6000610b8c601383610b45565b9150610b9782610b56565b602082019050919050565b6000604082019050610bb760008301846107b8565b8181036020830152610bc881610b7f565b905092915050565b6000610bdb826104ee565b9150610be6836104ee565b9250828202610bf4816104ee565b91508282048414831517610c0b57610c0a610ace565b5b5092915050565b6000610c1d826104ee565b9150610c28836104ee565b9250828201905080821115610c4057610c3f610ace565b5b9291505056fea26469706673582212208ce44340a0af14b7f9a645ca42a08e73ced8ac7e4fd7e50e5d8356e07ef722bb64736f6c63430008120033",
  "linkReferences": {},
  "deployedLinkReferences": {}
}