{
  "_format": "hh-sol-artifact-1",
  "contractName": "PokemonFactory",
  "sourceName": "contracts/PokemonFactory.sol",
  "abi": [
    {
      "anonymous": false,
      "inputs": [
        {
          "indexed": true,
          "internalType": "address",
          "name": "_from",
          "type": "address"
        },
        {
          "indexed": false,
          "internalType": "uint256",
          "name": "_id",
          "type": "uint256"
        },
        {
          "indexed": false,
          "internalType": "string",
          "name": "_value",
          "type": "string"
        }
      ],
      "name": "CreatedPokemon",
      "type": "event"
    },
    {
      "inputs": [
        {
          "internalType": "string",
          "name": "_name",
          "type": "string"
        },
        {
          "internalType": "uint256",
          "name": "_id",
          "type": "uint256"
        }
      ],
      "name": "createPokemon",
      "outputs": [],
      "stateMutability": "nonpayable",
      "type": "function"
    },
    {
      "inputs": [],
      "name": "getAllPokemons",
      "outputs": [
        {
          "components": [
            {
              "internalType": "uint256",
              "name": "id",
              "type": "uint256"
            },
            {
              "internalType": "string",
              "name": "name",
              "type": "string"
            }
          ],
          "internalType": "struct PokemonFactory.Pokemon[]",
          "name": "",
          "type": "tuple[]"
        }
      ],
      "stateMutability": "view",
      "type": "function"
    },
    {
      "inputs": [],
      "name": "getResult",
      "outputs": [
        {
          "internalType": "uint256",
          "name": "product",
          "type": "uint256"
        },
        {
          "internalType": "uint256",
          "name": "sum",
          "type": "uint256"
        }
      ],
      "stateMutability": "pure",
      "type": "function"
    },
    {
      "inputs": [
        {
          "internalType": "uint256",
          "name": "",
          "type": "uint256"
        }
      ],
      "name": "pokemonToOwner",
      "outputs": [
        {
          "internalType": "address",
          "name": "",
          "type": "address"
        }
      ],
      "stateMutability": "view",
      "type": "function"
    }
  ],
  "bytecode": "0x608060405234801561001057600080fd5b50610de1806100206000396000f3fe608060405234801561001057600080fd5b506004361061004c5760003560e01c80630a3bd50b146100515780632f7467b31461006d5780635e9167901461009d578063de292789146100bb575b600080fd5b61006b600480360381019061006691906105b1565b6100da565b005b6100876004803603810190610082919061060d565b6102c2565b604051610094919061067b565b60405180910390f35b6100a56102f5565b6040516100b29190610823565b60405180910390f35b6100c36103f0565b6040516100d1929190610854565b60405180910390f35b6000811161011d576040517f08c379a0000000000000000000000000000000000000000000000000000000008152600401610114906108da565b60405180910390fd5b60008290506002815111610166576040517f08c379a000000000000000000000000000000000000000000000000000000000815260040161015d90610946565b60405180910390fd5b600060405180604001604052808481526020018581525090806001815401808255809150506001900390600052602060002090600202016000909190919091506000820151816000015560208201518160010190816101c59190610b72565b505050336001600084815260200190815260200160002060006101000a81548173ffffffffffffffffffffffffffffffffffffffff021916908373ffffffffffffffffffffffffffffffffffffffff160217905550600260003373ffffffffffffffffffffffffffffffffffffffff1673ffffffffffffffffffffffffffffffffffffffff168152602001908152602001600020600081548092919061026a90610c73565b91905055503373ffffffffffffffffffffffffffffffffffffffff167f4703b8523faaced5a5c33cf4d0d29396368e826fa09b85f6a13203d22f8c34d4836040516102b59190610d07565b60405180910390a2505050565b60016020528060005260406000206000915054906101000a900473ffffffffffffffffffffffffffffffffffffffff1681565b60606000805480602002602001604051908101604052809291908181526020016000905b828210156103e757838290600052602060002090600202016040518060400160405290816000820154815260200160018201805461035690610995565b80601f016020809104026020016040519081016040528092919081815260200182805461038290610995565b80156103cf5780601f106103a4576101008083540402835291602001916103cf565b820191906000526020600020905b8154815290600101906020018083116103b257829003601f168201915b50505050508152505081526020019060010190610319565b50505050905090565b600080600060019050600060029050808261040b9190610d35565b935080826104199190610d77565b925050509091565b6000604051905090565b600080fd5b600080fd5b600080fd5b600080fd5b6000601f19601f8301169050919050565b7f4e487b7100000000000000000000000000000000000000000000000000000000600052604160045260246000fd5b6104888261043f565b810181811067ffffffffffffffff821117156104a7576104a6610450565b5b80604052505050565b60006104ba610421565b90506104c6828261047f565b919050565b600067ffffffffffffffff8211156104e6576104e5610450565b5b6104ef8261043f565b9050602081019050919050565b82818337600083830152505050565b600061051e610519846104cb565b6104b0565b90508281526020810184848401111561053a5761053961043a565b5b6105458482856104fc565b509392505050565b600082601f83011261056257610561610435565b5b813561057284826020860161050b565b91505092915050565b6000819050919050565b61058e8161057b565b811461059957600080fd5b50565b6000813590506105ab81610585565b92915050565b600080604083850312156105c8576105c761042b565b5b600083013567ffffffffffffffff8111156105e6576105e5610430565b5b6105f28582860161054d565b92505060206106038582860161059c565b9150509250929050565b6000602082840312156106235761062261042b565b5b60006106318482850161059c565b91505092915050565b600073ffffffffffffffffffffffffffffffffffffffff82169050919050565b60006106658261063a565b9050919050565b6106758161065a565b82525050565b6000602082019050610690600083018461066c565b92915050565b600081519050919050565b600082825260208201905092915050565b6000819050602082019050919050565b6106cb8161057b565b82525050565b600081519050919050565b600082825260208201905092915050565b60005b8381101561070b5780820151818401526020810190506106f0565b60008484015250505050565b6000610722826106d1565b61072c81856106dc565b935061073c8185602086016106ed565b6107458161043f565b840191505092915050565b600060408301600083015161076860008601826106c2565b50602083015184820360208601526107808282610717565b9150508091505092915050565b60006107998383610750565b905092915050565b6000602082019050919050565b60006107b982610696565b6107c381856106a1565b9350836020820285016107d5856106b2565b8060005b8581101561081157848403895281516107f2858261078d565b94506107fd836107a1565b925060208a019950506001810190506107d9565b50829750879550505050505092915050565b6000602082019050818103600083015261083d81846107ae565b905092915050565b61084e8161057b565b82525050565b60006040820190506108696000830185610845565b6108766020830184610845565b9392505050565b600082825260208201905092915050565b7f4944206d75737420626520626967676572207468616e20300000000000000000600082015250565b60006108c460188361087d565b91506108cf8261088e565b602082019050919050565b600060208201905081810360008301526108f3816108b7565b9050919050565b7f4e616d65206d7573742068617665206174206c65617374203220636861727300600082015250565b6000610930601f8361087d565b915061093b826108fa565b602082019050919050565b6000602082019050818103600083015261095f81610923565b9050919050565b7f4e487b7100000000000000000000000000000000000000000000000000000000600052602260045260246000fd5b600060028204905060018216806109ad57607f821691505b6020821081036109c0576109bf610966565b5b50919050565b60008190508160005260206000209050919050565b60006020601f8301049050919050565b600082821b905092915050565b600060088302610a287fffffffffffffffffffffffffffffffffffffffffffffffffffffffffffffffff826109eb565b610a3286836109eb565b95508019841693508086168417925050509392505050565b6000819050919050565b6000610a6f610a6a610a658461057b565b610a4a565b61057b565b9050919050565b6000819050919050565b610a8983610a54565b610a9d610a9582610a76565b8484546109f8565b825550505050565b600090565b610ab2610aa5565b610abd818484610a80565b505050565b5b81811015610ae157610ad6600082610aaa565b600181019050610ac3565b5050565b601f821115610b2657610af7816109c6565b610b00846109db565b81016020851015610b0f578190505b610b23610b1b856109db565b830182610ac2565b50505b505050565b600082821c905092915050565b6000610b4960001984600802610b2b565b1980831691505092915050565b6000610b628383610b38565b9150826002028217905092915050565b610b7b826106d1565b67ffffffffffffffff811115610b9457610b93610450565b5b610b9e8254610995565b610ba9828285610ae5565b600060209050601f831160018114610bdc5760008415610bca578287015190505b610bd48582610b56565b865550610c3c565b601f198416610bea866109c6565b60005b82811015610c1257848901518255600182019150602085019450602081019050610bed565b86831015610c2f5784890151610c2b601f891682610b38565b8355505b6001600288020188555050505b505050505050565b7f4e487b7100000000000000000000000000000000000000000000000000000000600052601160045260246000fd5b6000610c7e8261057b565b91507fffffffffffffffffffffffffffffffffffffffffffffffffffffffffffffffff8203610cb057610caf610c44565b5b600182019050919050565b7f4e657720706f6b656d6f6e206372656174656400000000000000000000000000600082015250565b6000610cf160138361087d565b9150610cfc82610cbb565b602082019050919050565b6000604082019050610d1c6000830184610845565b8181036020830152610d2d81610ce4565b905092915050565b6000610d408261057b565b9150610d4b8361057b565b9250828202610d598161057b565b91508282048414831517610d7057610d6f610c44565b5b5092915050565b6000610d828261057b565b9150610d8d8361057b565b9250828201905080821115610da557610da4610c44565b5b9291505056fea2646970667358221220a0d22de40357b6b314ee991b1fddebc6fff4251697c93a302543c7961085966d64736f6c63430008120033",
  "linkReferences": {},
  "deployedLinkReferences": {}
}